:020000040800F2
:1000000000500020ED0000081B0100081B01000843
:100010001B0100081B0100081B0100080238BFF487
:10002000FDAF704700000000000000001B01000849
:100030001B0100084A5A4A001B0100081B01000866
:100040001B0100081B0100081B0100081B01000820
:100050001B0100081B0100081B0100081B01000810
:100060001B0100081B0100081B0100081B01000800
:100070001B0100081B0100081B0100081B010008F0
:100080001B0100081B0100081B0100081B010008E0
:100090001B0100081B0100081B0100081B010008D0
:1000A0001B0100081B0100081B0100081B010008C0
:1000B0001B0100081B010008610200081B01000869
:1000C0001B0100081B0100081B0100081B010008A0
:1000D0001B0100081B0100081B0100081B01000890
:1000E0001B0100081B0100081B01000800F017F8A5
:1000F0001F49204A4FF0000091423CBFE1E8020056
:10010000FAE71D4C1D4D1E4BAC423EBFF3E8020208
:10011000E4E80202F8E701F043F8FFF7FEBF4FF012
:100120003202DFF86080DFF86090DFF860A04FF007
:10013000550745F67D66164D4FF4E814154BC8F883
:100140000020C9F80440C9F80030D9F8002012F4A2
:10015000003FFAD0D9F8000010F0007FFAD0C9F8BB
:1001600004A0C9F81470C9F81860C9F81C50704789
:1001700008000020DE3700200000002008000020DA
:1001800038F30008002002400010024002841D00E5
:100190000748E61A830001012DE9F04F4FF00209EC
:1001A0004FF4457A42F29008224B012218600F2149
:1001B0004FF4C47000274FF40F6641F61805182459
:1001C0004FF0350E4FF0A60CDFF86CB0DBF80038BE
:1001D00023F0704343F03043CBF80038DBF8043CA5
:1001E00023F00F0343F00303CBF8043C0BF5405B13
:1001F000ABF800A0ABF80490DFF84090104BA9F8E2
:100200003080DFF84080C9F838801F859E851D83C7
:100210009C83A3F834E0A3F838C098879A824FF003
:10022000804099814FF0E021C1F800011A80BDE8BB
:10023000F08F00BF080000200000014000000240D5
:10024000000800400C300140014B1860704700BFAF
:1002500008000020014B1868704700BF0000002014
:10026000684620F007018D460021694A01B4138ACF
:10027000118203F00F03013B072B23D8DFE803F0C3
:1002800004592234222222254FF4457C42F2900167
:10029000604A6148614BA0F800C011861A68B2F547
:1002A000077F0EBF00221A6801321A601A681B2AE3
:1002B00000F296801B68B3F5957F94BF002301235D
:1002C000574A137101BC85467047554B1B79002B6B
:1002D000F8D04FF4557042F291024F494D4B0880CF
:1002E00001BC1A86854670474FF480714D4A4B4BCE
:1002F000C2F8101C1B680133B3F5907F7BD03AD84D
:10030000122B78D0B3F5877F05D10021404A1185A3
:10031000B3F5907F73D8B3F5877F33D20C2B73D0AE
:10032000122B64D0062BCDD140F29F72384B1A8726
:10033000C8E74FF480703A4A3A491379C1F8140C6F
:10034000002BBFD03B20354B01F5803188861968E2
:100350001B68B1F5877F2ABF6FF495711C3B5B1852
:100360001268C3EB0310C3EB80032A4901BC13449A
:100370008546CB63704740F21D229342C5D001BC35
:1003800085467047A3F58773122B9BD801A252F8BC
:1003900023F000BF09040008C5020008C5020008D8
:1003A000C5020008C5020008C5020008C502000811
:1003B00029030008C5020008C5020008C50200089C
:1003C000C5020008C502000809040008C5020008AB
:1003D000C5020008C5020008C5020008EF030008B6
:1003E0001A68B2F5877FBFF465AF012368E7DE22A4
:1003F000074B1A8766E70121054A118588E740F215
:100400001D2293427FF45EAFA622014B1A8759E763
:1004100000080040000002400030014000000020C1
:100420000800002000000140014B1860704700BF29
:1004300010000020014B5860704700BF10000020E2
:10044000044BC1EB011C1B68C1EB8C0119440A541D
:1004500000BF704710000020FF22054BC1EB011CBC
:100460001B68C1EB8C0119440A5400BF704700BFE0
:10047000100000200022054BC1EB011C1B68C1EBE2
:100480008C0119440A5400BF704700BF10000020BF
:10049000064B1A68C1EB0113C1EB83010844135CDE
:1004A000B3FA83F35B095B421354704710000020DA
:1004B000084BC1EB011C1A688023C1EB8C0101EBD6
:1004C000D00100F0070043FA00F0535C1843505489
:1004D000704700BF10000020084BC1EB011C1A68D8
:1004E0008023C1EB8C0101EBD00100F00700034138
:1004F000505C20EA03005054704700BF10000020F9
:10050000084BC1EB011C1A688023C1EB8C0101EB85
:10051000D00100F0070043FA00F0535C58405054FB
:10052000704700BF100000203A2802D8E82901D9FE
:10053000FEE7FEE710B5294BC1EB011EC1EB8E01B2
:1005400018CB194411F800C014F8323004EBC20281
:1005500043EA0C030B5400F13B0C11F80C3092F8F9
:1005600001E043EA0E0301F80C3001F1760C92F839
:1005700002E01CF8003043EA0E030CF8003001F1F1
:10058000B10C92F803E01CF8003043EA0E030CF8BB
:10059000003001F1EC0C92F804E01CF8003043EA62
:1005A0000E030CF8003001F2271C92F805E01CF84D
:1005B000003043EA0E030CF8003001F5B17C92F8EC
:1005C00006E01CF8003001F29D1143EA0E030CF81E
:1005D00000300B5CD27913430B5410BD1000002087
:1005E0003A2868D8E82967D8C1EB011C524BC1EB07
:1005F0008C012DE9F04F18CB00F5CF7503EB010C02
:1006000004EBC2060CEB00030836654404EBC201A0
:10061000A94238BFB34283B04FD341EA03056D0707
:100620004BD154F832704A681CF800B00192002295
:10063000114693F83BA093F876906BF3070293F87A
:10064000EC6093F8B1806AF30F2293F8275169F3B5
:10065000174293F8624168F31F6266F3070122EACA
:10066000070293F89DE165F30F210CF8002064F375
:10067000174101986EF31F6121EA0001C2F30724BC
:10068000C2F3074083F83B40C2F30762C1F307247B
:1006900083F8760083F8EC10C1F30740C1F30761DB
:1006A00083F8B12083F8274183F8620183F89D1114
:1006B00003B0BDE8F08FFEE7FEE714F832201CF827
:1006C000003023EA02030CF8003000F13B021CF872
:1006D00002304C7823EA04030CF802300CF1760265
:1006E0008C78135C23EA040313540CF1B102CC7828
:1006F000135C23EA040313540CF1EC020C79135C31
:1007000023EA040313540CF227124C79135C23EAF6
:10071000040313540CF5B172135C8C790CF29D1C1C
:1007200023EA04031354CA791CF8003023EA0203B5
:100730000CF80030BCE700BF100000203A2802D8B7
:10074000E82901D9FEE7FEE710B5294BC1EB011EF0
:10075000C1EB8E0118CB194411F800C014F83230E7
:1007600004EBC20283EA0C030B5400F13B0C11F8BA
:100770000C3092F801E083EA0E0301F80C3001F12D
:10078000760C92F802E01CF8003083EA0E030CF8B5
:10079000003001F1B10C92F803E01CF8003083EA5C
:1007A0000E030CF8003001F1EC0C92F804E01CF898
:1007B000003083EA0E030CF8003001F2271C92F897
:1007C00005E01CF8003083EA0E030CF8003001F558
:1007D000B17C92F806E01CF8003001F29D1183EA2A
:1007E0000E030CF800300B5CD27953400B5410BD53
:1007F0001000002030B51478002C55D02B4DCBB212
:10080000696801EBC30CC0EB00132968C0EB8303DC
:100810000B44801A3A2C02EB000102D8E82901D9D6
:10082000FEE7FEE7195D9CF800502943195504F1D5
:100830003B05595D9CF801E041EA0E01595503F171
:100840007605295D9CF802E041EA0E01295503F185
:10085000B105295D9CF803E041EA0E01295503F139
:10086000EC05295D9CF804E041EA0E01295503F2EC
:100870002715295D9CF805E041EA0E01295503F58D
:10088000B175295D9CF806E041EA0E01295503F295
:100890009D110D5D9CF807E03B3345EA0E050D55B3
:1008A00012F8014F002CB5D130BD00BF1000002060
:1008B000F8B505460C4616461F4616F8012B0D2ABC
:1008C00008D8DFE802F0170707070707070707132D
:1008D0000D15070D28462146B84701353A2D01D997
:1008E00000250834F12C28BF0024E6E70435F5E79D
:1008F0000834F3E7F8BD00BF024490420FD24FF036
:10090000FF0CC1EB0113C1EB8303054918441A44E2
:100910000B6803F800C000BF01308242F8D1704775
:10092000100000200A44914216D24FF0FF0CC1EB98
:10093000011310B4C2EB0214C2EB8402C1EB8301B9
:10094000064C0B181044226802F803C000BF3B336A
:100950009842F8D110BC7047704700BF10000020CB
:10096000F8B58518A84208D204460F461E46204610
:1009700039460134B047A542F9D1F8BDF8B58D1814
:10098000A94208D20C4607461E4621463846013485
:10099000B047A542F9D1F8BD2DE9F04F151A83B043
:1009A000002DB8BF6D4201935E1A58BFCE1A019B4D
:1009B00082468B428CBF01234FF0FF331746894696
:1009C00082428CBF4FF0010B4FF0FF3BDDF83080CF
:1009D0000093AC1949465046C047BA454FEA440314
:1009E00010D0B6EB440FDCBFA419DA449D42F1DB12
:1009F000009B504699444946C0472C44BA454FEAAB
:100A00004403EED1019A9145EBD103B0BDE8F08FDC
:100A10002DE9F8438718B84281460C4638BF064690
:100A2000089D01EB03080CD2304621460136A84749
:100A3000B742F9D14E46304641460136A847BE423C
:100A4000F9D1444538BF26460BD2314648460136D7
:100A5000A8474645F9D1214638460134A8474445C0
:100A6000F9D1BDE8F88300BF0B4499421FD210B5FD
:100A700000EB020E7045144618D24FF0FF0CC1EB8C
:100A80000110C3EB0312C3EB8203C1EB8001084AE0
:100A900001EB0E009E44031B116801F803C000BF68
:100AA00001339842F8D13B308645F4D110BD7047F0
:100AB00010000020F0B5CE18B14221D207468418AC
:100AC000104BA74218681BD28025C1EB011EC6EB54
:100AD0000613C1EB8E0EC6EB83063A460EEBD2012F
:100AE00010F801C002F0070345FA03F3013243EAAC
:100AF0000C0394424354F1D10EF13B0EB645ECD1B8
:100B0000F0BD00BF100000202DE9F04F0D4689B068
:100B10000390039F0791111AB3EB050981EAE17075
:100B200058BFA5EB0309A0EBE170974234BF012148
:100B30004FF0FF31DDE912B4DDF81CC005919C4592
:100B400034BF01214FF0FF3165463E4606916249B0
:100B50000490086804994FEAD70A01EB090E2901AD
:100B6000019107F007010291139480270199029CDB
:100B7000491BC5EB8101514410F801C0274147EAE8
:100B80000C07B2424FEA4E08475413D0B9EB4E0F50
:100B900007DC0599CE440E4406F007014FEAD60A59
:100BA000029104994145E0DB069C8E4425442901CD
:100BB0000191DAE7AB42E9D1139CABEB0201B4EB54
:100BC000030E81EAE17558BFA3EB040EA5EBE175B6
:100BD0005A4534BF01214FF0FF310291A34234BF87
:100BE00001214FF0FF310195049101994FEA031A59
:100BF00001EB0E064FEAD20902F007088025AAEBA6
:100C00000301C3EB81014944475C45FA08F53D43C4
:100C100093454FEA460C455412D0BEEB460F06DC16
:100C2000029976440A444FEAD20902F00708019972
:100C30006145E3DB049D0E442B444FEA031ADDE7D4
:100C40009C42EAD1039B4FF0800AA3EB0B07079B62
:100C5000002FB8BF7F42B3EB040C58BFA4EB030CCA
:100C6000039B07EB0C015B458CBF01234FF0FF3367
:100C70000193079B4FEA0419A3428CBF01234FF055
:100C8000FF334FEADB0802930BF0070EA9EB0403D6
:100C9000C4EB83034344C65C4AFA0EF23243C254A7
:100CA000039B4D005B4511D0BCEB410F06DC019B63
:100CB00061449B444FEADB080BF0070EAF42E5DBD3
:100CC000029B39441C444FEA0419DFE7079BA34207
:100CD000EAD109B0BDE8F08F10000020704700BFD6
:100CE000704700BF044B186880EA403080EA5040EB
:100CF00080EA40101860704704000020F8B5002614
:100D0000084D094FA5F13B0404F8016F4FF47A70C8
:100D1000FFF784F9AC42F7D104F13B05BD42F1D1B4
:100D2000F8BD00BF5200002018380020F8B5FF269B
:100D3000084D094FA5F13B0404F8016F4FF47A7098
:100D4000FFF76CF9AC42F7D104F13B05BD42F1D19C
:100D5000F8BD00BF52000020183800202DE9F04FE8
:100D6000B94EBA4FDFF8E8A285B008210120B94A90
:100D7000B94BFFF79DFD48210D20B74BB74AFFF750
:100D800097FD58210E20B44BB54AFFF791FD78210D
:100D90000120B14BB34AFFF78BFD80210120AE4B00
:100DA000B14AFFF785FD88210120AB4BAF4AFFF721
:100DB0007FFD90210120A84BAD4AFFF779FD9821D6
:100DC0000120A54BAB4AFFF773FDA8210120A24BE0
:100DD000A94AFFF76DFDB82101209F4BA74AFFF7F5
:100DE00067FDC82101209C4BA54AFFF761FDA54C7A
:100DF000D0210120984BA44AFFF75AFDA348FFF7E2
:100E00000DF9A0464FF0FF09A8F13B0505F8019F39
:100E10004FF47A70FFF702F9A845F7D19C4B08F11F
:100E20003B084345F0D168211B209A4B9A4AFFF7B3
:100E30003FFD9A48FFF7F2F842F21079F2254FF49D
:100E4000EC70336883EA433383EA534383EA431302
:100E500083EA433282EA524282EA42125108A7FBF5
:100E600001C1490805FB11213260AAFB03C29209A6
:100E700000FB1230FFF730FB4FF47A70FFF7CEF82B
:100E8000B9F10109DBD18548FFF7C8F8A046A8F100
:100E90003B0505F8019F4FF47A70FFF7BFF8A845AE
:100EA000F7D17B4B08F13B084345F0D168211B206B
:100EB000694B7B4AFFF7FCFC7848FFF7AFF84FF02F
:100EC0006408DFF8E0914FF0F20E4FF4EC703568F3
:100ED000754B85EA453585EA554585EA451585EA28
:100EE000453282EA524282EA421282EA423C8CEA6B
:100EF0005C4C8CEA4C1C00938CEA4C3383EA5343E1
:100F000083EA43135908A7FB01B1490833600EFB7C
:100F100011334FEA5C01A7FB01B149080EFB11C177
:100F2000AAFB02EC4FEA9C1C00FB1C22AAFB05EC6E
:100F30004FEA9C1C00FB1C50FFF72EFD4846FFF7B4
:100F40006DF8B8F10108BED15448FFF767F8A04624
:100F50004FF0FF09A8F13B0505F8019F4FF47A70A7
:100F6000FFF75CF8A845F7D1494B08F13B0843452A
:100F7000F0D168211720474B4C4AFFF799FC4748AE
:100F8000FFF74CF84FF06409DFF81881F2204FF4B6
:100F9000EC7C3268464B82EA423282EA524282EA72
:100FA0004212009382EA423383EA534383EA4313B3
:100FB0005908A7FB0151490800FB113183EA433569
:100FC000AAFB023085EA554585EA451585EA453391
:100FD000800983EA53430CFB102083EA4313C1F1D9
:100FE000F20CB3FBFCFEC0F5EC7233600CFB1E335D
:100FF000B5FBF2FC02FB1C52FFF70AFD4046FFF76F
:101000000DF8B9F10109C1D12448FFF707F8A0464E
:10101000A8F13B0505F8019F4FF47A70FEF7FEFF3B
:10102000A845F7D11A4B08F13B084345F0D1642598
:1010300068211720084B1F4AFFF73AFC1748FEF7B4
:10104000EDFF039438E000BF040000205B3D3B044B
:10105000BF3CB622C411000829050008D4110008BD
:10106000F811000818120008501200087412000845
:10107000A4120008D8120008F8120008341300085F
:101080006C130008520000208C13000800C2EB0B08
:1010900018380020E1050008C013000800A24A0427
:1010A000C813000840420F00B1040008D013000824
:1010B000D9040008DC130008F22133684FF4EC7007
:1010C00083EA433C8CEA5C4C8CEA4C1C8CEA4C3244
:1010D00082EA524282EA421282EA423E8EEA5E4E40
:1010E0008EEA4E1E8EEA4E3888EA584888EA48183A
:1010F00088EA483989EA594989EA491989EA493324
:1011000083EA534383EA43134FEA530BA7FB0B4B8A
:101110004FEA5B0B336001FB1B330193AAFB0E43C9
:101120009B0900FB13E34FEA580E00934FEA590363
:10113000A7FB0343A7FB0E4E5B084FEA5E0E01FBC5
:10114000139301FB1E81AAFB024E4FEA9E1E00FB79
:101150001E22AAFB0C4E4FEA9E1E00FB1EC0FFF78C
:10116000D3FC0C48FEF75AFF013DA5D10A48039C69
:10117000FEF754FFA4F13B0808F8015F4FF47A70C2
:10118000FEF74CFFA045F7D1044B3B34A342F1D10D
:10119000EBE500BF40420F0000A24A0418380020CF
:1011A000064C08B52046FEF7F7FF2046FFF73CF94E
:1011B0000348FFF73FF9FFF7D1FD00BF18000020FB
:0411C000E813000828
:1011C40048656C6C6F20576F726C642100000000DE
:1011D400536F6674776172652052656E64657269D7
:1011E4006E672B436F6D706F736974652044656D12
:1011F4006F2100004279204A5A4A2028496E204330
:1012040020616E642041524D20617373656D626C80
:10121400792900004C696E652044726177696E67B4
:1012240020416C676F726974686D3A20427265730D
:10123400656E68616D2028496E746567657220412A
:10124400726974686D65746963290000524E4720A1
:10125400416C676F726974686D3A09092020586F90
:1012640072736869667420283332206269742900B5
:10127400285265666572656E6365642077696B697B
:10128400706564696120746F20696D706C656D654B
:101294006E7420746865736520696E2043293A0072
:1012A400656E2E77696B6970656469612E6F72670C
:1012B4002F77696B692F42726573656E68616D255E
:1012C4003237735F6C696E655F616C676F726974E6
:1012D400686D0000656E2E77696B6970656469617D
:1012E4002E6F72672F77696B692F586F72736869F5
:1012F40066740000466F6E743A2056696E63656EBC
:10130400742028666F72756D2E6F736465762E6F08
:1013140072672F76696577746F7069632E70687071
:101324003F663D3226743D323230333329000000AB
:1013340041524D20696E697420636F646520667242
:101344006F6D2047697468756220726566657265A1
:101354006E63656420746F2068656C7020696D70BD
:101364006C656D656E7400004D6963726F636F6EBA
:1013740074726F6C6C65723A2053544D333246313B
:1013840030334338543600005265736F6C7574699A
:101394006F6E3A203437322062792032343220287A
:1013A4004C696D697465642062792032304B6942FE
:1013B400206F66205352414D29000000446F74731E
:1013C400210000004C696E6573210000526563744E
:1013D400616E676C65732100547269616E676C6538
:1013E400732100000000000000000000003E415591
:1013F4004155493E003E7F6B7F6B773E0022777FED
:101404007F3E1C0800081C3E7F3E1C0800081C2A66
:101414007F2A081C00081C3E7F3E081C00001C3E5E
:101424003E3E1C00FFFFE3C1C1C1E3FF00001C22DC
:1014340022221C00FFFFE3DDDDDDE3FF000F0305D7
:101444003948483000083E081C22221C0018141099
:1014540010307060000F19111337766000082A1CD1
:10146400771C2A080060787E7F7E786000030F3F37
:101474007F3F0F0300081C2A082A1C0800666666C2
:1014840066006666003F65653D050505000C32484B
:1014940024124C3000000000007F7F7F00081C2ACB
:1014A400082A1C3E00081C3E7F1C1C1C001C1C1C23
:1014B4007F3E1C0800080C7E7F7E0C080008183F45
:1014C4007F3F18080000007070707F7F00001422B6
:1014D4007F22140000081C1C3E3E7F7F007F7F3E5D
:1014E4003E1C1C08000000000000000000183C3CEA
:1014F4001818001800363614000000000036367F35
:10150400367F363600081E201C023C080060660C3C
:1015140018306606003C663C2865663F00181818BB
:101524003000000000060C1818180C060060301873
:10153400181830600000361C7F1C360000000808B4
:101544003E08080000000000303030600000000059
:101554003C00000000000000000060600000060C79
:1015640018306000003C666E7666663C00181838D9
:101574001818187E003C66060C30607E003C660637
:101584001C06663C000C1C2C4C7E0C0C007E607C03
:101594000606663C003C66607C66663C007E660C23
:1015A4000C181818003C66663C66663C003C66668F
:1015B4003E06663C000018180018180000001818B1
:1015C4000018183000060C1830180C060000003CF7
:1015D400003C0000006030180C183060003C6606C7
:1015E4001C1800180038445C58423C00003C6666F5
:1015F4007E666666007C66667C66667C003C666029
:101604006060663C007C66666666667C007E606040
:101614007C60607E007E60607C606060003C666030
:10162400606E663C006666667E666666003C1818F8
:101634001818183C001E0C0C0C6C6C3800666C7886
:1016440070786C66006060606060607E0063777FC5
:101654006B6363630063737B6F676363003C6666FD
:101664006666663C007C6666667C6060003C666616
:10167400666E3C06007C66667C786C66003C666040
:101684003C06663C007E5A181818181800666666F0
:101694006666663E0066666666663C18006363635B
:1016A4006B7F7763006363361C366363006666662C
:1016B4003C181818007E060C1830607E001E18189E
:1016C4001818181E00006030180C0600007818184E
:1016D40018181878000814224100000000000000C7
:1016E4000000007F000C0C06000000000000003C1D
:1016F400063E663E006060607C66667C0000003CDE
:101704006660663C000606063E66663E0000003CD7
:10171400667E603C001C3630307C303000003E6613
:10172400663E063C006060607C66666600001800E9
:101734001818183C000C000C0C6C6C3800606066C7
:101744006C786C66001818181818181800000063D4
:10175400777F6B6B0000007C7E6666660000003C51
:101764006666663C00007C66667C606000003C6CDB
:101774006C3C0D0F0000007C666660600000003E5B
:10178400403C027C000018187E18181800000066FF
:101794006666663E0000000066663C180000006352
:1017A4006B6B6B3E000000663C183C6600000066F4
:1017B400663E063C0000003C0C18303C000E181835
:1017C4003018180E00181818001818180070181877
:1017D4000C1818700000003A6C00000000081C3659
:1017E4006341417FFFFFFFFFFFFFFFFFFFFFFFFF9D
:1017F400FFFFFFFFFFFFFFFFFFFFFFFFFFFFFFFFF5
:10180400FFFFFFFFFFFFFFFFFFFFFFFFFFFFFFFFE4
:10181400FFFFFFFFFFFFFFFFFFFFFFFFFFFFFFFFD4
:10182400FFFFFFFFFFFFFFFFFFFFFFFFFFFFFFFFC4
:1020F400FFFFFFFFFFFFFFFFFFFFFFFE7FFFFFFF6D
:10210400FFFFFFFFFFFFFFFFFFFFFFFFFFFFFFFFDB
:10211400FFFFFFFFFFFFFFFFFFFFFFFFFFFFFFFFCB
:10212400FFFFFFFFFFFFFFFFFFFFFFFFFFFFFFFFBB
:10213400FFFFFFFFFFFFFFFFFFFFFFFFFFFFFFFFAB
:10214400FFFFFFFFFFFFFFFFFFFFFFFFFFFFFFFF9B
:10215400FFFFFFFFFFFFFFFFFFFFFFFFFFFFFFFF8B
:10216400FFFFFFFFFFFFFFFFFFFFFFFFFFFFFFE09A
:102174001FFFFFFFFFFFFFFFFFFFFFFFFFFFFFFF4B
:10218400FFFFFFFFFFFFFFFFFFFFFFFFFFFFFFFF5B
:10219400FFFFFFFFFFFFFFFFFFFFFFFFFFFFFFFF4B
:1021A400FFFFFFFFFFFFFFFFFFFFFFFFFFFFFFFF3B
:1021B400FFFFFFFFFFFFFFFFFFFFFFFFFFFFFFFF2B
:1021C400FFFFFFFFFFFFFFFFFFFFFFFFFFFFFFFF1B
:1021D400FFFFFFFFFFFFFFFFFFFFFFFFFFFFFFFF0B
:1021E400FFFFFFC01FFFFFFFFFFFFFFFFFFFFFFF1A
:1021F400FFFFFFFFFFFFFFFFFFFFFFFFFFFFFFFFEB
:10220400FFFFFFFFFFFFFFFFFFFFFFFFFFFFFFFFDA
:10221400FFFFFFFFFFFFFFFFFFFFFFFFFFFFFFFFCA
:10222400FFFFFFFFFFFFFFFFFFFFFFFFFFFFFFFFBA
:10223400FFFFFFFFFFFFFFFFFFFFFFFFFFFFFFFFAA
:10224400FFFFFFFFFFFFFFFFFFFFFFFFFFFFFFFF9A
:10225400FFFFFFFFFFFFFF007FFFFFFFFFFFFFFF09
:10226400FFFFFFFFFFFFFFFFFFFFFFFFFFFFFFFF7A
:10227400FFFFFFFFFFFFFFFFFFFFFFFFFFFFFFFF6A
:10228400FFFFFFFFFFFFFFFFFFFFFFFFFFFFFFFF5A
:10229400FFFFFFFFFF3FFFFFFFFFFFFFFFFFFFFF0A
:1022A400FFFFFFFFFFFFFFFFFFFFFFFFFFFFFFFF3A
:1022B400FFFFFFFFFFFFFFFFFFFFFFFFFFFFFFFF2A
:1022C400FFFFFFFFFFFFFFFFFFFFF807FFFFFFFF19
:1022D400FFFFFFFFFFFFFFFFFFFFFFFFFFFFFFFF0A
:1022E400FFFFFFFFFFFFFFFFFFFFFFFFFFFFFFFFFA
:1022F400FFFFFFFFFFFFFFFFFFFFFFFFFFFFFFFFEA
:10230400FFFFFFFFFFFFFFFFFE1FFFFFFFFFFFFFBA
:10231400FFFFFFFFFFFFFFFFFFFFFFFFFFFFFFFFC9
:10232400FFFFFFFFFFFFFFFFFFFFFFFFFFFFFFFFB9
:10233400FFFFFFFFFFFFFFFFFFFFFFFFFFFFE01FA8
:10234400FFFFFFFFFFFFFFFFFFFFFFFFFFFFFFFF99
:10235400FFFFFFFFFFFFFFFFFFFFFFFFFFFFFFFF89
:10236400FFFFFFFFFFFFFFFFFFFFFFFFFFFFFFFF79
:10237400FFFFFFFFFFFFFFFFFFFFFFFFFC1FFFFF4C
:10238400FFFFFFFFFFFFFFFFFFFFFFFFFFFFFFFF59
:10239400FFFFFFFFFFFFFFFFFFFFFFFFFFFFFFFF49
:1023A400FFFFFFFFFFFFFFFFFFFFFFFFFFFFFFFF39
:1023B400FFFF807FFFFFFFFFFFFFFFFFFFFFFFFF28
:1023C400FFFFFFFFFFFFFFFFFFFFFFFFFFFE07FF12
:1023D400FFFFFFFFFFFFFFFFFFFFFFFFFFFFFFFF09
:1023E400FFFFFFFFFFFFFFFFFFFFFFFFFFFFFFFFF9
:1023F400F83FFFFFFFFFFFFFFFFFFFFFFFFFFFFFB0
:10240400FFFFFFFFFFFFFFFFFFFFFFFFFFFFFFFFD8
:10241400FFFFFFFFFFFFFFFFFFFFFFFFFFFFFFFFC8
:10242400FFFFFFFFFFFF03FFFFFFFFFFFFFFFFFFB4
:10243400FFFFFFFFFFFFFFFFFFFFFFFFFFFFFFFFA8
:10244400FFE001FFFFFFFFFFFFFFFFFFFFFFFFFFB5
:10245400FFFFFFFFFFFFFFFFFFFFFFFFFFFFFFFF88
:10246400FFFFFFFFF87FFFFFFFFFFFFFFFFFFFFFFF
:10247400FFFFFFFFFFFFFFFFFFFFFFFFFFFFFFFF68
:10248400FFFFFFFFFFFFFFFFFFFFFFFFFFFFFFFF58
:10249400FFFFFFFFFFFFFFFFFFFE07FFFFFFFF1F21
:1024A400FFFFFFFFFFFFFFFFFFFFFFFFFFFFFFFF38
:1024B400FFFFFFFFFFE001FFFFFFFFFFFFFFFFFF45
:1024C400FFFFFFFFFFFFFFFFFFFFFFFFFFFFFFFF18
:1024D400FFFFFFFFFFFFFFFFF87FFFFFFFFFFFFF8F
:1024E400FFFFFFFFFFFFFFFFFFFFFFFFFFFFFFFFF8
:1024F400FFFFFFFFFFFFFFFFFFFFFFFFFFFFFFFFE8
:10250400FFFFFFFFFFFFFFFFFFFFFFFFFFF81FFFBE
:10251400FFFFF807FFFFFFFFFFFFFFFFFFFFFFFFC6
:10252400FFFFFFFFFFFFFFFFFFF001FF9FFFFFFF24
:10253400FFFFFFFFFFFCFFFFFFFFFFFFF87FFFFF31
:10254400FFFFFFFFFFFFFFFFFFFFFFFFF0FFFFFFA6
:10255400FFFFFFFFFFFFFFFFFFFFFFFE00007FFF06
:10256400FFFFFFFFFFFFFFFFFFFFFFFFFFFFFFFF77
:10257400FFFFFFFFFFFFFFFFFFFFFFFFFFFFFFFF67
:10258400FFF03FFFFFFFE003FFFFFFFFEFFFFFFF51
:10259400FFFFFFFFFFFFFFFFFFFFFFFFFFF801FF4C
:1025A4000FFFFFFFFFFFFFFFFFFC7FFFFFFFFFFFAA
:1025B400F07FFFFFFFFFFFFFFFFFFFFFFFFFFFFFB6
:1025C400F0FFFFFFFFFFFFFFE7FFFFFFFFFFFFE05D
:1025D400000007FFFFFFFFFFFFFFFFFFFFFFFFFFFD
:1025E400FFFFFFFFFFFFFFFFFFFFFFFFFFFFFFFFF7
:1025F400FFFFFFFFFFE07FFFFFFFC001FFFFFFFEC4
:1026040001FFFFFFFFFFFFFFFFFFFFFFFFFFFFFFD4
:10261400FFFE03FF0FFFFFFFFFFFFFFFFFF87FFF3A
:10262400F3FFFFFFF83FFFFFFFFFFFFFFFFFFFFF89
:10263400FFFFFFFFF0FFFFFFFFFFFFFFE3FFFFFFD1
:10264400FFFFFFE00000007FFFFFFFFFFFFFFFFF32
:10265400FFFFFFFFFFFFFFFFFFFFE3FFFFFFFFFFA2
:10266400FFFFFFFFFFFFFFFFFFC1FFFFFFFFC1C130
:10267400FFFFFCF801FFFFFFFFFFFFFFFFFFFFFF6E
:10268400FFFFFFFFFFFFFFFF0FFFFFFFFFFFFFFF46
:10269400FFF87FFFE1FFFFFFFC1FFFFFFFFFFFFFCE
:1026A400FFFFFFFFFFFFFFFFF0FFFFFFFFFFFFFF45
:1026B400C1FFFFFFFFFFFFFE0000000301FF7FFFDC
:1026C400FFFFFFFFFFFFFFFFFFFFFFFFFFFC00FF18
:1026D400FFFFFFFFFFFFFFFFFFFFFFFFFFC3FFFF42
:1026E400FFFF83C1FFFFF8F801FFFFFFFFFFFCFFBF
:1026F400FFFFFFFFFFFFFF1FFFFFFFFF0FFFFFFFB6
:10270400FFFFFFFFFFF07FFFC1FFFFFFFF07FFFF9A
:10271400FFFFFFFFFFFFFFFFFFFFFFFFF0FFFFFFD4
:10272400FFFFFFFFC1FFFFFFFFFFFFFFFFFFF00001
:102734000000000000000000000000000000000095
:10274400000000FFFFFFFFFFFFFFFFFFFFFFFFFF92
:10275400FF83FFFFFFFF87E0FFFFF8F061FFFCFF4F
:10276400FFFFF87FFFFFFFFFFFFFF007FFFFFFFF03
:102774000FFFFFFFFFFFFFFFFFF0FFFF83FFFFFFE0
:10278400FF83FFFFFFFFFFFFFFFFFFFFFFFFFFFFD1
:10279400F0FFFFFFFFFFFFFFE1FFFFFFFFFFFFFF72
:1027A400FFFFFF0000000000000000000000000028
:1027B40000000000000003FFFFFFFFFFFFFFFFFF1B
:1027C400FFFFFFFFFF87FFFFFFFF87F0FFFFF870AA
:1027D400E0FFE03FFFFFF007FFFFFFFFFFFF800781
:1027E400FFFFFFFF0FFFFFFFFFFFFFFFFFF0FFFFF4
:1027F40007FFFC1FFF81FFFFFFFFFFFFFFFFFFFF3E
:10280400FFFFFFFFE0FFFFFFFFFFFFFFE3FFFFFF0F
:10281400FFFFFFFFFFFFFFF80000000000000000C3
:1028240000000000000000000000FFFFFFFFFFFFAA
:10283400FFFFFFFFFFFFFFFFFF87FFFFFFFF87F89B
:102844007FFFF860F0FFC03FFFFFF001FFFFF8FFDC
:10285400FFFE001FFFFFFFFF0FFEFFFFFFFFFFFF55
:10286400FFF0FFFF0FFFFC1FFFC1FFFFFFFFFFFF94
:10287400FFFFFFFFFFFFFFFFE1FFFFFFFFFFFFFF82
:10288400FFFFFFFFFFFFFFFFFFFFFFFFFE00000052
:10289400000000000000000000000000001FFFFF17
:1028A400FFFFFFFFFFFFFFFFFFFFFFFFFF87FFFFAC
:1028B400FFFF83F83FFFF861F0FF803FFFFFE00078
:1028C400FFFF803FFFFC07FFFFFFFFFF0FC03FFF3D
:1028D400FFFFFFFFFFF07FFE0FFFFC1FFFE1FFFF85
:1028E400FFFFFFFFFFFFFFFFFFFFFFFFE1FFFFFF12
:1028F400FFFFFFFFFFFFFFFFFFFFFFFFFFFFFFFFE4
:10290400FFFC1FFFFFFFFFFFF0FFFFFFFFFF8FFF35
:10291400FFFFFFFFFFFFFFFFFFFFFFFFFFFFFFFFC3
:10292400FF87FFFFFFFF807C3FFFF841F07F041F1C
:10293400FFFFE001FFFE000FFFF03FFFFFFFFFF08E
:1029440000003FFFFFFFFFFFFFF83FFE1FFFFC1FDC
:10295400FFF0FFFFFFFFFFFFFFFFFFFFFFFFFFFF92
:10296400E1FFFFFFFFFFFFFFFFFFFFFFFFFFFFFF91
:10297400FFFFFFFFFFFC3FFFFFFFFFFFE0FFFFFF45
:10298400FFFF8FFFFFFFFFFFFFFFFFFFFFFFFFFFC3
:10299400FFFFFFFFFFC1FFFFFFFF80187FFFF8432A
:1029A400F87E0E0FFFFFF0F0FFFC0007FFE07FFF53
:1029B400FFFFFF000000FFFF8FFFFFFFFFFC3FFC56
:1029C4001FFFFFFFFFF87FFFFFFFFFFFFFFFFFFF7A
:1029D400FFFFFFFFE1FFFFFFFFFFFFFFFFFFFFFF21
:1029E400FFFFFFFFFFFFFFFFFFFC3FFFFFFFFFFFB6
:1029F400C1FFFFFFFFFF8FFFFFFFFFFFFFFFFFFF91
:102A0400FFFFFFFFFFFFFFFFFFF07FFFFFFF8000DF
:102A14007FFFF803FC3C3F0FFFFFF0F87FFC3F878C
:102A2400FFE03FFFFFFFFF00000FFFFC00FFFFFF81
:102A3400FFFC1FFC3FFFFFFFFFFC3FFFFFFFFFFF0B
:102A4400FFFFFFFFFFFFFFFFE1FFFFFFFFFFFFFFB0
:102A5400FFFFFFFFFFFFFFFFFFFFFFFFFFF87FFF09
:102A6400FFFFFFFF81FFFFFFFFFF8FFFFFFFFFFF60
:102A7400FFFFFFFFFFFFFFFFFFFFFFFFFFF81FFF49
:102A8400FFFF06007FFFF803FC003E1FFFFFF07806
:102A94007FF83F83FFE0005FFFFFFFF000FFFFF8D8
:102AA400003FFFFFFFFE1FFC3FFFFFFFFFFC1FFF78
:102AB400FFFFFFFFFFFFFFFFFFFFFFFFE1FFFFFF40
:102AC400FFFFFFFFFFFFFFFFFFFFFFFFFFFFFFFF12
:102AD400FFF87FFFFFFFFFFF07FFFFFFFFFF8FFFF1
:102AE400FFFFFFFFFFFFFFFFFFFFFFFFFFFFFFFFF2
:102AF400FFFC03FFFFFF07807FFFF807FE007F0F47
:102B0400FFFFF0387FF07FC0FFF00003FFFFFFFFFF
:102B14000FFFFFE0003FFFFFFFFE0FFC3FFFFFFF43
:102B2400FFFE1FFFFFFFFFFFFFFFFFFFFFFFFFFF92
:102B3400E1FF1FFFFFFFFFFFFFFFFFFFFFFFFFFF9F
:102B4400FFFFFFFFFFF87FFFFFFFFFFE0FFFFFFF09
:102B5400FFFF8FFFFFFFFFFFFFFFFFFFFFFFFFFFF1
:102B6400FFFFFFFFFFFF004FFFFF07F8FFFFF80F16
:102B7400FF00FF07FFFFF0187FE07FE0FFFF80000A
:102B84003FF80FFF0FFFFFC1FC1FFFFFFFFF0FF810
:102B94003FFFFFFFFFFE1FFFF83FFFFFFF07FFFFA1
:102BA400FFFFFFFFE1FC01FF8FFFFFFFFFFFFFFFC0
:102BB400FFFFFFFFFFFFFFFFFFF07FFFFFFFFFFCB3
:102BC4003FFFFFFFFFFF0FFFFFFFFFFFFFFFFFFFC1
:102BD400FFFFFFFFFFFFFFFFFFFFC003FFFF8FFFAC
:102BE400FFFFF80FFFC7FF83FFFFF0007F81FFE0C7
:102BF400FFFFFF001FF80FFF0FFFFF83FE1FFFFF04
:102C0400FFFF0FF83FFFFFFFFFE00FFFC003FFFFD1
:102C1400F001FFFFFFFFFFFFE1FC007F07FFFFFF65
:102C2400FFFFFFFFFFFFFFFFFFFFFFFFFFF0FFFFBF
:102C3400FFFFFFF87FFFFFFFFFFF0FFFFFFFFFFF17
:102C4400FFFFFFFFFFFFFFFFFFFFFFFFFFFFF80393
:102C5400FFFFFFFFFFFFF80FFFFFFFC1FFFFF000C3
:102C64007F83FFF0FFFFFFF81FF80FFF0FFFFF87C1
:102C7400FE1FFFFFFFFF07F87FFFFFFFFF0007FFB7
:102C84000001FFFFC000FFFFFFFFFFFFE1FF003F68
:102C940007FFFFFFFFFFFFFFFFFFFFFFFFFFFFFF38
:102CA400FFE0FFFFFFFFFFF07FFFFFFFFFFE0FFFCF
:102CB400FFFFFFFFFFFFFFFFFFFFFFFFFFFFFFFF20
:102CC400FFFFFE0FFFFFFFFFFFFFF81FFFFFFFF0F7
:102CD400FFFFF0007F87FFF0FFFFFFFE1FF80FFFED
:102CE4000FFFFF07FC1FFFFFFFFFC3F07FFFFFFF86
:102CF400FC0007800000FFFFC0007FFFFFFFFFFF15
:102D0400E0FFFC3F87FFFFFFFFFFFFFFFFFFFFFF29
:102D1400FFFFFFFFFFE0FFFFFFFFFFE0FFFFFFFFFD
:102D2400FFFE1FFFFFFFFFFFFFFFFFFFFFFFFFFF90
:102D3400FFFFFFFFFFFFFFFFFFFFFFFFFFFFFE7F20
:102D4400FFFFFFF060FFF0007F0E3FF0FFFFFFFC8E
:102D54001FF81FFF0FFFFF0FF83FFFFFFFFFE1F01A
:102D64007FFFFFFFFC000F801FF0FFFF83F07FFF5A
:102D7400FFFFFFFFE07FFC3F87FFFFFFFFFFFFFF39
:102D8400FFFFFFFFFFFFFFFFFFC1FFFFFFFFFF8309
:102D9400FFFFFFFFFFFE1FFFFFFFFFFFFFFFFFFF20
:102DA400FFFFFFFFFFFFFFFFFFFFFFFFFFFFFFFF2F
:102DB400FFFFFFFFFFFFFFF800FFF0807F8C0FF0A5
:102DC400FFFFFFFC3FF81FFF0FFFFF00003FFFFF67
:102DD400FFFFF0F0FFFFFFFFFC3F0FE00000FFFFED
:102DE40087F87FFFFFFFFFFFF0FFFC3F87FFFFFF38
:102DF400FFFFFFFFFFFFFFFFFFFFFFFFFF03FFFFDB
:102E0400FFFFFF07FFFFFFFFFFFC1FFFFFFFFFFFA9
:102E1400FFFFFFFFFFFFFFFFFFFFFFFFFFFFFFFFBE
:102E2400FFFFFFFFFFFFFFFFFFFFFFF801FFF0C001
:102E34007FFC0000FFFFFFF83FF83FFF07FFFE00A5
:102E4400007FFFFFFFFFF0F0FFFFFFFFFC1F0FE01D
:102E54000000FFFF87F87FFFFFFFFFFFF0FFFC3F4D
:102E640087FE0FFFFFFFFFFFFFFFFFFFFFFFFFFFD7
:102E7400F003FFFFFFFFFE1FFFFFFFFFFFFC1FFF2D
:102E8400FFFFFFFFFFFFFFFFFFFFFFFFFFFFFFFF4E
:102E9400FFFFFFFFFFFFFFFFFFFFFFFFFFFFFFFC41
:102EA40007FFF0E07FFF0000FFFFFFE07FF83FFF38
:102EB40003FFFE0003FFFFFFFFFFF0F0FFFFFFFF34
:102EC400FE1F0FE00001FFFF87F87FFFFFFFFFFFFA
:102ED400F0FFFC3F83FC0FFFC3FFFFFFFFFFFFFF7B
:102EE400FFFFFFFC000FFFFFFFFFFC3FFFFFFFFFA3
:102EF4000FF83FFFFFFFFFFFFFFFFFFFFFFFFFFF95
:102F0400FFFFFFFFFFFFFFFFFFFFFFFFFFFFFFFFCD
:102F1400FFFFFFFE07FFF0F8FFFFC001FFFFFFC048
:102F24007FF83FFF83FFFF001FFFFFFFFFFFF070ED
:102F3400FFFFFF9FFE0F0FE0000FFFFF87F87FFFEB
:102F4400FFFFFFFFF0FFFC3FC3F83FFFC3FFFFFF9E
:102F5400FFFFFFFFFFFFFF80003FFFFFFFFFF07F4A
:102F6400FFFFFFFF0FF07FFFFFFFFFFFFFFFFFFFEC
:102F7400FFFFFFFFFFFFFFFFFFFFFFFFFFFFFFFF5D
:102F8400FFFFFFFFFFFFFFFF07FFF0FFFFFFFC0155
:102F9400FFFFF800FFF83FFF87FFFF81FFFFFFFF00
:102FA400FFFFF870FFFFFF1FFF000FE1FFFFFFFFB0
:102FB40087F87FFFFFFFFFFFF0FFFC3FC3F0FFFF39
:102FC40083FFFFFFFFFFFFFFFFFFFF0003FFFFFF84
:102FD400FFFFF0FFFFFFFFFF8780FFFFFFFFFFFF03
:102FE400FFFFFFFFFFFFFFFFFFFFFFFFFFFFFFFFED
:102FF400FFFFFFFFFFFFFFFFFFFFFFFFBFFFE0FF3C
:10300400FFFFFFFFFFF00007FFF83FFFFFFFFFE1B7
:10301400FFFFFFFFFFFFFC00FFFFFF0FFF800FE03C
:10302400FFFFFFFF87F87FFFFFFFFFFFF0FFF83F81
:10303400E1E1FFFC01FFFFFFFFFFFFFFFFFFFF00D8
:103044007FFFFFFFFFFFE1FFFFFFFFFF8000FFFFA8
:10305400FFFFFFFFFFFFFFFFFFFFFFFFFFFFFFFF7C
:10306400FFFFFFFFFFFFFFFFFFFFFFFFFFFFFFFF6C
:10307400FFFF80FFFFFFFFFFFFF0000FFFF83FFFA0
:10308400FFFFFFE0FE1FFFFFFFFFFC00FFFFFF0F3E
:10309400FFE00FE03FFFFFFF87F87FFFFFFFFFFF29
:1030A400F87FF87FE1C1FFFC01FFFFFFFFFFFFFF97
:1030B400FFFFFF81FFFFFFFFFFFFC3FFFFDFFFFFF6
:1030C4008003FFFFFFFFFFFFFFFFFFFFFFFFFFFF87
:1030D400FFFFFFFFFFFFFFFFFFFFFFFFFFFFFFFFFC
:1030E400FFFFFFFFFFFF80FFFFFFFFFFFFF001FF78
:1030F400FFF83FFFFFFFFFF0781FFFFFFFFFFE0019
:10310400FFFFFF0FFFFE1FF01F87FFFF83F87FFF06
:10311400FFFFFFFFF83FC07FF0C1FFFE01FFFFFF8D
:10312400FFFFFFFFFFFFFFFFFFFFFFFFFFFF83FF27
:10313400F803FFFFC007FFFFFFFFFFFFFFFFFFFFD5
:10314400FFFFFFFFFFFFFFFFFFFFFFFFFFFFFFFF8B
:10315400FFFFFFFFFFFFFFFFFFFFC0FFFFFFFFFFBA
:10316400FFFE3FFFFFFE7FFFFFFFFFF8703FFFFF03
:10317400FFFFFE00FFFFFE0FFFFFFFF80007FFFF4A
:10318400C3F87FFFFFFFFFFFFC0000FFF003FFFF1A
:1031940000FFFFFFFFFFFFFFFFFFFFFFFFFFFFFF3A
:1031A400FFFF07FFC003FFFFFFFFFFFFFFFFFFFF5E
:1031B400FFFFFFFFFFFFFFFFFFFFFFFFFFFFFFFF1B
:1031C400FFFFFFFFFFFFFFFFFFFFFFFFFFFFC0FF4A
:1031D400FFFFFFFFFFFFFFFFFFFFFFFFFFFFFFF802
:1031E400007FFFFFFFFFFF81FFFFFE0FFFFFFFFEDA
:1031F400000FFFFFC1007FFFFFFFFFFFFC0001FF87
:10320400F80FFFFFE0FFFFFFFFFFFFFFFFFFFFFFE0
:10321400FFFFFFFFFFFF0000001FFFFFFFFFFFFF97
:10322400FFFFFFFFFFFFFFFFFFFFFFFFFFFFFFFFAA
:10323400FFFFFFFFFFFFFFFFFFFFFFFFFFFFFFFF9A
:10324400FFFFE0FFFFFFFFFFFFFFFFFFFFFFFFFFA9
:10325400FFFFFFFC01FFFFFFFFFFFFEFFFFFFE1F6C
:10326400FFFFFFFFC01FFFFFE0007FFFFFFFFFFF27
:10327400FE000FFFFC0FFFFFF7FFFFFFFFFFFFFF45
:10328400FFFFFFFFFFFFFFFFFFFE000003FFFFFF45
:10329400FFFFFFFFFFFFFFFFFFFFFFFFFFFFFFFF3A
:1032A400FFFFFFFFFFFFFFFFFFFFFFFFFFFFFFFF2A
:1032B400FFFFFFFFFFFFE0FFFFFFFFFFFFFFFFFF39
:1032C400FFFFFFFFFFFFFFFE01FFFFFFFFFFFFFF09
:1032D400FFFFFFFFFFFFFFFFF0FFFFFFE0007FFFA7
:1032E400FFFFFFFFFF81FFFFF80FFFFFFFFFFFFF5F
:1032F400FFFFFFFFFFFFFFFFFFFFFFFFFFFE0000D9
:103304001FFFFFFFFFFFFFFFFFFFFFFFFFFFFFFFA9
:10331400FFFFFFFFFFFFFFFFFFFFFFFFFFFFFFFFB9
:10332400FFFFFFFFFFFFFFFFFFFFF0FFFFFFFFFFB8
:10333400FFFFFFFFFFFFFFFFFFFFFFFF8FFFFFFF09
:10334400FFFFFFFFFFFFFFFFFFFFFFFFFFFFFFFF89
:10335400F010FFFFFFFFFFFFFFFFFFFFF00FFFFF76
:10336400FFFFFFFFFFFFFFFFFFFFFFFFFFFFFFFF69
:10337400FFFF8000FFFFFFFFFFFFFFFFFFFFFFFFD7
:10338400FFFFFFFFFFFFFFFFFFFFFFFFFFFFFFFF49
:10339400FFFFFFFFFFFFFFFFFFFFFFFFFFFFFFFF39
:1033A400FFFFFFFFFFFFFFFFFFFFFFFFFFFFFFFF29
:1033B400FFFFFFFFFFFFFFFFFFFFFFFFFFFFFFFF19
:1033C400FFFFFFFFF83FFFFFFFFFFFFFFFFFFFFFD0
:1033D400C1FFFFFFFFFFFFFFFFFFFFFFFFFFFFFF37
:1033E400FFFFFFFFFFFFFFFFFFFFFFFFFFFFFFFFE9
:1033F400FFFFFFFFFFFFFFFFFFFFFFFFFFFFFFFFD9
:10340400FFFFFFFFFFFFFFFFFFFFFFFFFFFFFFFFC8
:10341400FFFFFFFFFFFFFFFFFFFFFFFFFFFFFFFFB8
:10342400FFFFFFFFFFFFFFFFFFFFFFFFFFFFFFFFA8
:10343400FFFFFFFFFFFFFFFFFE7FFFFFFFFFFFFF19
:10344400FFFFFFFF03FFFFFFFFFFFFFFFFFFFFFF84
:10345400FFFFFFFFFFFFFFFFFFFFFFFFFFFFFFFF78
:10346400FFFFFFFFFFFFFFFFFFFFFFFFFFFFFFFF68
:10347400FFFFFFFFFFFFFFFFFFFFFFFFFFFFFFFF58
:10348400FFFFFFFFFFFFFFFFFFFFFFFFFFFFFFFF48
:10349400FFFFFFFFFFFFFFFFFFFFFFFFFFFFFFFF38
:1034A400FFFFFFFFFFFFFFFFFFFFFFFFFFFFFFFF28
:1034B400FFFFFFFFFFFFFFFC07FFFFFFFFFFFFFF13
:1034C400FFFFFFFFFFFFFFFFFFFFFFFFFFFFFFFF08
:1034D400FFFFFFFFFFFFFFFFFFFFFFFFFFFFFFFFF8
:1034E400FFFFFFFFFFFFFFFFFFFFFFFFFFFFFFFFE8
:1034F400FFFFFFFFFFFFFFFFFFFFFFFFFFFFFFFFD8
:10350400FFFFFFFFFFFFFFFFFFFFFFFFFFFFFFFFC7
:10351400FFFFFFFFFFFFFFFFFFFFFFFFFFFFFFFFB7
:10352400FFFFFFFFFFFFFFFFFFFFFFF80FFFFFFF9E
:10353400FFFFFFFFFFFFFFFFFFFFFFFFFFFFFFFF97
:10354400FFFFFFFFFFFFFFFFFFFFFFFFFFFFFFFF87
:10355400FFFFFFFFFFFFFFFFFFFFFFFFFFFFFFFF77
:10356400FFFFFFFFFFFFFFFFFFFFFFFFFFFFFFFF67
:10357400FFFFFFFFFFFFFFFFFFFFFFFFFFFFFFFF57
:10358400FFFFFFFFFFFFFFFFFFFFFFFFFFFFFFFF47
:10359400FFFFFFFFFFFFFFFFFFFFFFFFFFFFFFF83E
:1035A4003FFFFFFFFFFFFFFFFFFFFFFFFFFFFFFFE7
:1035B400FFFFFFFFFFFFFFFFFFFFFFFFFFFFFFFF17
:1035C400FFFFFFFFFFFFFFFFFFFFFFFFFFFFFFFF07
:1035D400FFFFFFFFFFFFFFFFFFFFFFFFFFFFFFFFF7
:1035E400FFFFFFFFFFFFFFFFFFFFFFFFFFFFFFFFE7
:1035F400FFFFFFFFFFFFFFFFFFFFFFFFFFFFFFFFD7
:10360400FFFFFFFFFFFFFFFFFFFFFFFFFFFFFFFFC6
:10361400FFFFFFFCFFFFFFFFFFFFFFFFFFFFFFFFB9
:10362400FFFFFFFFFFFFFFFFFFFFFFFFFFFFFFFFA6
:10363400FFFFFFFFFFFFFFFFFFFFFFFFFFFFFFFF96
:10364400FFFFFFFFFFFFFFFFFFFFFFFFFFFFFFFF86
:10365400FFFFFFFFFFFFFFFFFFFFFFFFFFFFFFFF76
:103B2400FFFFFFFFC79FFFFFFFFFFFFFFFFFFFFF39
:103B3400FFFFFFFFFFFFFFFFFFFFFFFFFFFFFFFF91
:103B4400FFFFFFFFFFFFFFFFFFFFFFFFFFFFFFFF81
:103B5400FFFFFFFFFFFFFFFFFFFFFFFFFFFFFFFF71
:103B6400FFFFFFFFFFFFFFFFFFFFFFFFFFFFFFFF61
:103B7400FFFFFFFFFFFFFFFFFFFFFFFFFFFFFFFF51
:103B8400FFFFFFFFFFF0FF878FFFFFFFFFFFFFFF38
:103B9400FFFFFFFFFFFFFFFFC79FFFFFFFFFFFFFC9
:103BA400FFFFFFFFFFFFFFFFFFFFFFFFFFFFFFFF21
:103BB400FFFFFFFFFFFFFFFFFFFFFFFFFFFFFFFF11
:103BC400FFFFFFFFFFFFFFFFFFFFFFFFFFFFFFFF01
:103BD400FFFFFFFFE7FFFFFFFFFFFFFFFFFFFFFF09
:103BE400FFFFFFFFFFFFFFFFFFFFFFFFFFFFFFFFE1
:103BF400FFFFFFFFFFFFFFFFFFF0FF078FFFFFFF48
:103C0400FFFFFFFFFFFFFFF9FFFFFFFFC79FFFFF5E
:103C1400FFFFFFFFFFFFFFFFFFFFFFFFFFFFFFFFB0
:103C2400FFFFFFFFFFFFFFFE7FC7FFFE3FFFFFFF1A
:103C3400FFFE00FFC3FE1FF0FFFFFFFE01FC01F8C3
:103C44000FFFFFFFFFFFFFFFE7FFFFF9FFFFFFFF8E
:103C5400FFFFFFFF1FFFFFFFFFFFFFFFFFFFFFFF50
:103C6400FFFFFFFFFFFFFFFFFFFFFFFFFFF07E07E8
:103C7400FFFFFFFFFFFFFFFFFFFFFFF9FFFFFFFF56
:103C8400C79FFFFFFFFFFFFFFFFFFFFFFFFFFFFFD8
:103C9400FFFFFFFFFFFFFFFFFFFFFFFE7FC7FFFEEA
:103CA4003FFFFFFFFFFE001FC3FE1FF07FFFFFF873
:103CB400007C00780FFFFFFFFFFFFFFFE7FFE7F93E
:103CC400FFFFFFFFFFFFFFFF1FFFFE3FFFFFFFFFA1
:103CD400FFFFFFFFFF1FFFFFFFFFFFFFFFFFFFFFD0
:103CE400FFF07E47FFFFFFFFFFFFFFFFFFFFFFF92E
:103CF400FFFFFFFFC79FFFFFFFFFFFFFFFFFFFFF68
:103D0400FFFFFFFFFFFFFFFFFFFFFFFFFFFFFFFEC0
:103D14007FC7FFFFFFFFFFFFFFFE7F0FC1FC1FF008
:103D24007FFFFFF1FE7C7E3E3FFFFFFFFFFFFFFFB3
:103D3400E7FFE7FFFFFFFFFFFFFFFFFFFFFFFE3F80
:103D4400FFFFFFFFFFFFFFFFFF1FFFFFFFFFFFFF5F
:103D5400FFFFFFFFFFF23C478FE079C7E07FE07E83
:103D640007F183E00E30FC1FC79FC0FE61F1FFFF27
:103D7400FFFFFFFFFFFFFFFFFFFFFFFFFFFFFFFF4F
:103D8400FFFFFFFE7FC7FFFFFFFFFFFFFFFE7FC7B1
:103D9400C0F81FE23FFFFFF3FFFC7E3E3FFFFFFF43
:103DA400FFFFFFFFE7FFE7FFFFFFFFFFFFFFFFFF4F
:103DB400FFFFFE3FFFFFFFFFFFFFFFFFFF1FFFFFB0
:103DC400FFFFFFFFFFFFFFFFFFF33CC78F803803B8
:103DD400801F803C01F001E00E00F007C79F003E09
:103DE40001F1FFFFFFFFFFFFFFFFFFFFFFFFFFFFEB
:103DF400FFFFFFFFFFFFFFFE7FC7F03E78C1FF829A
:103E04003FFE7FE3C4F91FE73FFFFFF3FFFC7F3E64
:103E14003FFFFFC03F8C1FF807FF8039E30783FE95
:103E24000FE30FFF3C60FC03F03F9C31873F8F980A
:103E34003E01F01FFFFFFFFFFFFFFFFFFFF399C7E6
:103E44008F1FB87F0F1F1FB8F8F0F8F9FE1FE3E3C8
:103E5400C79E3F3E1FF1FFFFFFFFFFFFFFFFFFFF76
:103E6400FFFFFFFFFFFFFFFFFFFFFFFE7FC7C00E47
:103E74007800FE003FFE7FF3C4731FC71FFFFFF1EE
:103E8400FFFC7E3E3FFFFFC00F800FE007FF80393D
:103E9400E00201F803E00FFF3C007C03C00F803018
:103EA400073F8F800E01E00FFFFFFFFFFFFFFFFFC3
:103EB400FFF389C78E3FF9FF3F8E3FF1FC71F8F99C
:103EC400FE3FC7F1C79E7F1E7FFFFFFFFFFFFFFF7F
:103ED400FFFFFFFFFFFFFFFFFFFFFFFFFFFFFFFEEF
:103EE4007FC78FDE787C7C7E3FFE7FF1C6731FCF59
:103EF4009FFFFFF01FFC7C3E3FFFFFFFC787C7C744
:103F0400E7FFE7F9E1E0F9F1F1E1FFFF3C3E3E3F75
:103F14008FCF87F07F3F8F87871FC7EFFFFFFFFF9C
:103F2400FFFFFFFFFFF3C3C78E3FF9FE3FCE3FF312
:103F3400FC71F8F9FE3FC7F1C79C001E7FFFFFFF2D
:103F4400FFFFFFFFFFFFFFFFFFFFFFFFFFFFFFFF7D
:103F5400FFFFFFFE7FC78FFE78FC7CFE3FFE7FF1F4
:103F6400C6271F8F8FFFFFFC01FC007E3FFFFFFF72
:103F7400C78FC78FE7FFE7F9E3F1F8E3F9E3FFFF42
:103F84003C7E3E3F9FE79FF1FF3F8F9FC71FCFFFC0
:103F9400FFFFFFFFFFFFFFFFFFF3C3C78E3FF9FEE5
:103FA4003FCE7FF3FC71F8F9FE3FC7F1C79C001EBA
:103FB4007FFFFFFFFFFFFFFFFFFFFFFFFFFFFFFF8D
:103FC400FFFFFFFFFFFFFFFE7FC7C3FE78FE78FE03
:103FD4003FFE7FF1C7071F9F8FFFFFFFF07C01FEAD
:103FE4003FFFFFF8078FE78FE7FFE7F9E3F1F8E01A
:103FF40000E3FFFF3C7F3E3F00079FF1FF3F8F9FA1
:10400400E71FC3FFFFFFFFFFFFFFFFFFFFF3E7C74C
:104014008E3FF9FE3FCE3FF3FC71F8F9FE3FC7F146
:10402400C79C7FFE7FFFFFFFFFFFFFFFFFFFFFFF38
:10403400FFFFFFFFFFFFFFFFFFFFFFFE7FC7E03E25
:1040440078FE78FE3FFE7FF3C78F1F000FFFFFFF50
:10405400FC3C7FFE3FFFFFC0078FE78FE7FFE7F9D8
:10406400E3F1F8E000E3FFFF3C7F3E3F00079FF1F0
:10407400FF3F8F9FE71FF01FFFFFFFFFFFFFFFFFC3
:10408400FFF3FFC78E3FF9FF3F8E3FF1FC71F8F954
:10409400FE3FC7F1C79C7FFE7FFFFFFFFFFFFFFFCF
:1040A400FFFFFFFFFFFFFFFFFFFFFFFFFFFFFFFE1D
:1040B4003FC7FF0E78FE78FE3FFE7FE3C7CF1F00A9
:1040C40007FFFFFFFE3C7FFE3FFFFF87E78FE78F81
:1040D400E7FFE7F9E3F1F8E7FFE3FFFF3C7F3E3F4B
:1040E4001FFF9FF1FF3F8F9FE71FFF0FFFFFFFFFA2
:1040F400FFFFFFFFFFF3FFC78F1FB9FF0F1F1FB89D
:10410400F8F1F8F8FE3FE3E3C79E1FDE7FF1FFFFFF
:10411400FFFFFFFFFFFFFFFFFFFFFFFFFFFFFFFFAB
:10412400FFFFFFFE3FC7FFCE78FE78FE3FFE7FC74E
:10413400C7FF1F3FC7FFFFFFFE3C7FFE3FFFFF9F00
:10414400E78FE78FE7FFE7F9E3F1F8E3FFE3FFFF2A
:104154003C7F3E3F9FFF9FF1FF1F8F9FC71FFFC7FD
:10416400FFFFFFFFFFFFFFFFFFF3FFC78F8039FF54
:10417400801F803C01F1F8F80E3FF007C79F001E36
:104184007FF1FFFFFFFFFFFFFFFFFFFFFFFFFFFFC9
:10419400FFFFFFFFFFFFFFFF1F8F9F8E78FE7C7CDA
:1041A4003FFE7F0FC7FF1E3FE3E3FFE1FC7C7FFE82
:1041B4003F8FFF8F878FE7C7C7FFE3F9E3F1F8F17C
:1041C400FFE3FFFF3C7F3E3F87F79FF1FF1F0F8F09
:1041D4008F1FDFCFFFFFFFFFFFFFFFFFFFF3FFC7CF
:1041E4008FE079FFE07FE07E07F1F8FE0E3FFC1FD1
:1041F400C79FC07E7FF1FFFFFFFFFFFFFFFFFFFFB1
:10420400FFFFFFFFFFFFFFFFFFFFFFFF001F801EF9
:1042140078FE7E003FFE001FC7FF1E7FE3E3FFF032
:1042240000FC7FF80F8FFFC0078FE7E007FFE0393E
:10423400E3F1F8F801E3FFFF3C7F3F03C0079FF180
:10424400FF800F801F81C00FFFFFFFFFFFFFFFFFF5
:10425400FFFFFFFFFFFFFFFFFFFFFFFFFFFFFFFF6A
:10426400FFFFFFFFFFFFFFFFFFFFFFFFFFFFFFFF5A
:10427400FFFFFFFFFFFFFFFFFFFFFFFFFFFFFFFF4A
:10428400E07FE07E78FE7F067FFE00FFC7FF1C7F95
:10429400F1E7FFFC03FC7FF80F9FFFE0E78FE7F0F7
:1042A40067FFF039E3F1F8FE03E3FFFF3C7F3F8350
:1042B400F81F9FF1FFC18F807FC1E03FFFFFFFFF29
:1042C400FFFFFFFFFFFFFFFFFFFFFFFFFFFFFFFFFA
:1042D400FFFFFFFFFFFFFFFFFFFFFFFFFFFFFFFFEA
:1042E400FFFFFFFFFFFFFFFFFFFFFFFFFFFFFFFFDA
:1042F400FFFFFFFFFFFFFFFFFFFFFFFE7FFFFFFF4B
:10430400FFFFFFFFFFC7FFFFFFFFFFFFFF1FFFFFD1
:10431400FFFFFFFFFFFFFFFFFFFFFFFFFFFFFFFFA9
:10432400FFFFFFFFFFFFFFFFFFFFFF9FFFFFFFFFF9
:10433400FFFFFFFFFFFFFFFFFFFFFFFFFFFFFFFF89
:10434400FFFFFFFFFFFFFFFFFFFFFFFFFFFFFFFF79
:10435400FFFFFFFFFFFFFFFFFFFFFFFFFFFFFFFF69
:10436400FFFFFFFFFFFFFFFFFFFFFFFFFFFFFFFC5C
:104374007FFFFFFFFFFFFFFFFFCFFFFFFFFFFFFFF9
:10438400FF3FFFFFFFFFFFFFFFFFFFFFFFFFFFFFF9
:10439400FFFFFFFFFFFFFFFFFFFFFFFFFFFFFF9F89
:1043A400FFFFFFFFFFFFFFFFFFFFFFFFFFFFFFFF19
:1043B400FFFFFFFFFFFFFFFFFFFFFFFFFFFFFFFF09
:1043C400FFFFFFFFFFFFFFFFFFFFFFFFFFFFFFFFF9
:1043D400FFFFFFFFFFFFFFFFFFFFFFFFFFFFFFFFE9
:1043E400FFFFFE00FFFFFFFFFFFFFFFFFFCFFFFF09
:1043F400FFFFFFFFFF3FFFFFFFFFFFFFFFFFFFFF89
:10440400FFFFFFFFFFFFFFFFFFFFFFFFFFFFFFFFB8
:10441400FFFFFF9FFFFFFFFFFFFFFFFFFFFFFFFF08
:10442400FFFFFFFFFFFFFFFFFFFFFFFFFFFFFFFF98
:10443400FFFFFFFFFFFFFFFFFFFFFFFFFFFFFFFF88
:10444400FFFFFFFFFFFFFFFFFFFFFFFFFFFFFFFF78
:10445400FFFFFFFFFFFFFE03FFFFFFFFFFFFFFFF65
:10446400FFFFFFFFFFFFFFFFFFFFFFFFFFFFFFFF58
:10447400FFFFFFFFFFFFFFFFFFFFFFFFFFFFFFFF48
:10448400FFFFFFFFFFFFFF9FFFFFFFFFFFFFFFFF98
:10449400FFFFFFFFFFFFFFFFFFFFFFFFFFFFFFFF28
:1044A400FFFFFFFFFFFFFFFFFFFFFFFFFFFFFFFF18
:1044B400FFFFFFFFFFFFFFFFFFFFFFFFFFFFFFFF08
:1044C400FFFFFFFFFFFFFFFFFFFFFFFFFFFFFFFFF8
:10474400FFFFFFFFFFFFFFFFFFFFFFFFFFFE01E093
:1047540000187FC3F80FFC0FF8007F3FFE0FFC0723
:10476400FFC07FC0F80007F03FFFFFFFFFFFFFFF20
:10477400FFFFFFFFFFFFFFFFFFFFFFFFFFFFFFFF45
:104784008FFFFFFFFFFFFFFFFFFFFE7FFFFFFFFF26
:10479400FFFFFFFFFFFFFFFFFFFFFFFFFFFFFFFF25
:1047A400FFFFFFFFFFFFFFFFFFFFFFE7FFFFFFFF2D
:1047B400FFFFFFFFFFFFFFFFFFFFFFFFFFFFFFFF05
:1047C400FFF8006000183FC3E003F003F8007E3FE9
:1047D400F803F001FE001F00380007C03FFFFFFF91
:1047E400FFFFFFFFFFFFFFFFFFFFFFFFFFFFFFFFD5
:1047F400FFFFFFFF8FFFFFF1FFFFFFFFFFFFFE7FC4
:10480400FE3FFFFFF3FFFFFFFFFFFFFFFFFFFFFF81
:10481400FFFFFFFFFFFFFFFFFFFFFFFFFFC7FFE7F4
:10482400FFFFFFFFFFFFFFFFFFFFFFFFFFFFFFFF94
:10483400FFFFFFFFFFE1FEFFC7F83F83E7E1F3E17E
:10484400F9FFF03FF1E1FBF0FC3F0E3E1FF1FF8F5B
:10485400FFFFFFFFFFFFFFFFFFFFFFFFFFFFFFFF64
:10486400FFFFFFFE7FFFFFFF8FFFFFF1FFFFFFFF53
:10487400FFF1FE7FFE3FFFFFF3FFFFFFFFFFFFFFA0
:10488400FFFFFFC7FFFFFFFFFFFFFFFFFFFFFFFF6C
:10489400FFC79FE7FFFFFFFFFFFFFFFFFFFFFFFFD4
:1048A400FFFFFFFFFFFFFFFFFFE3FFFFC7F81F83CB
:1048B400FFF1FFF9F9FFF03FE3F1FFF8F8FFFE7FA6
:1048C4001FF1FF1FFFFFFFFFFFFFFFFFFFFFFFFFC2
:1048D400FFFFFFFFFFFFFFFE7FFFFFFF8FFFFFFFD5
:1048E400FFFFFFFFFFF1FE7FFFFFFFFFFFFFFFFF63
:1048F400FFFFFFFFFFFFFFC7FFFFFFFFFFFFFFFFFC
:10490400FFFFFFFFFFFF9FE7FFFFFFFFFFFFFFFF2B
:10491400FFFFFFFFFFFFFFFFFFFFFFFFFFE3FFFFBF
:10492400C7F89F23FFF1FFF9F9FFFF3FE3F8FFF812
:10493400F8FFFE7F1FF1FE3FFFFFFFFFFFFFFFFFBA
:10494400FFFFFFFFFFFFFFFFFFFFFFFE7FFFFFFFF4
:104954008FFFFFFFFFFFFFFFFFF1FE7FFFFFFFFF62
:10496400FFFFFFFFFFFFFFFFFFFFFFC7FFFFFFFF8B
:10497400FFFFFFFFFFFFFFFFFFFF9FE7FFFFFFFFBB
:10498400FFFFFFFFFFFFFFFFFFFFFFFFFFFFFFFF33
:10499400FFE3FFFFC7F88E63FFE3FFF9F9FFFF3F73
:1049A400E7F8FFF1F1FFFE1F3FF1FE60FFFFFFFF9D
:1049B400FFFFFFFFFFFFFFFFFFFFFFFFFFFFFFF80A
:1049C40003F07FFF8C1F9C39E307FE09FFE01E60A4
:1049D400FE3F03FFF3C41F0FE01FF823F83FFF80DF
:1049E4007E07FFF3FC7E07F3F8FFF1F9F9C600E751
:1049F4000FFFFFFFFFFFFFFFFFFFFFFFFFFFFFFFB3
:104A0400FFFFFFFFFFF03FFFC7F8CE63FE0FFFF18C
:104A1400F801FF3FE7F8FF07F1FFFF807FF1FE0099
:104A24003FFFFFFFFFFFFFFFFFFFFFFFFFFFFFFF52
:104A3400FFFFFFF803C01FFF800F8039E003F80178
:104A4400FFE01E003E3C01FFF3C00003E007E0036B
:104A5400E00FFF807801FFF1FCF801F3F8FFF9F1B2
:104A6400F1C600E003FFFFFFFFFFFFFFFFFFFFFFB3
:104A7400FFFFFFFFFFFFFFFFFFFC01FFC7F8E4E3B9
:104A8400FE07FFE7F801FF3FE7F8FF03F1FFFF80B0
:104A94007FF1FE3F1FFFFFFFFFFFFFFFFFFFFFFF51
:104AA400FFFFFFFFFFFFFFFE7F8F8FFF87C787F9A1
:104AB400E1F1F1F1FFF1FE1E3E38FDFFF3C3C1E366
:104AC400FFC7C7E3C7C7FFC7F0F1FFF9F8F0F1F379
:104AD400F8FFF8F0F1C79FE1E1FFFFFFFFFFFFFFE1
:104AE400FFFFFFFFFFFFFFFFFFFFFFFFFFFFE07F71
:104AF400C7F8E0E3FFE3FFCFF9FFFF3FE7F8FFF07C
:104B0400F1FFFE3E1FF1FE7F8FFFFFFFFFFFFFFF60
:104B1400FFFFFFFFFFFFFFFFFFFFFFFE7F1FC7FF3A
:104B24008FE38FF9E3F1E3F9FFF1FE7F3E38FFFFF6
:104B3400F3C7E3F1FFE3CFE39FE7FFC7F3F8FFF821
:104B4400F9F3F8F3F8FFF8E0F3C79FE7F1FFFFFF8D
:104B5400FFFFFFFFFFFFFFFFFFFFFFFFFFFFFFFF61
:104B6400FFFFFC7FC7F8F1E3FFF1FF1FF9FFFF3FF1
:104B7400E7F8FFF8F1FFFE7F1FF1FE7F8FFFFFFFD5
:104B8400FFFFFFFFFFFFFFFFFFFFFFFFFFFFFFFE32
:104B94007F1FC7FF8FE39FF9E7F1E3F9FFF1FE7F82
:104BA4003E387FFFF3C7E3F1FC038FE38007FFC7C1
:104BB400E3FCFFFCF3E3FCF3F8FFFCE673C79FE7B9
:104BC400F1FFFFFFFFFFFFFFFFFFFFFFFFFFFFFFFF
:104BD400FFFFFFFFFFFFFE7FC7F8F9E3FFF1FE3F92
:104BE400F9FFFF3FE3F8FFFCF8FFFC7F9FF1FE7F36
:104BF4008FFFFFFFFFFFFFFFFFFFFFFFFFFFFFFF31
:104C0400FFFFFFFE7F1FC7FF8FE39FF9E7F1E7F97F
:104C1400FFF1FE7F3E3E03FFF3C7E3F1E0038FE3C2
:104C24000007FFC7E3FCFFFC63E3FCF3F8FFFC664B
:104C340067C79FE7F1FFFFFFFFFFFFFFFFFFFFFFD6
:104C4400FFFFFFFFFFFFFFFFFFFFFE7FC7F8FFE34C
:104C5400FFF1F8FFF9FFFF3FE3F1FFF8F8FFFC7FF6
:104C64009FF1FE3F9FFFFFFFFFFFFFFFFFFFFFFFDF
:104C7400FFFFFFFFFFFFFFFE7F1FC7FF8FE39FF9CB
:104C8400E7F1E3F9FFF1FE7F3E3FE1FFF3C7E3F114
:104C9400C3E38FE31FFFFFC7E3FCFFFE67E3FCF3FF
:104CA400F8FFFE4F27C79FE7F1FFFFFFFFFFFFFF5E
:104CB400FFFFFFFFFFFFFFFFFFFFFFFFFFE3F87FA3
:104CC400C7F8FFE3EFE1F1FFF9FFFF3FF1E1FBF08C
:104CD400FC3F0E3F1FF1FF1F1FFFFFFFFFFFFFFF02
:104CE400FFFFFFFFFFFFFFFFFFFFFFFE7F1FC7FF69
:104CF4008FE39FF9E7F1E3F9FFF1FE7F3E3FF8FF11
:104D0400F3C7E3F18FE38FE38FFFFFC7F3F8FFFEF1
:104D140007F3F8F3F8FFFE0F07C79FE7F1FFFFFF64
:104D2400FFFFFFFFFFFFFFFFFFFFFFFFFFFFFFFF8F
:104D3400FFE000FFC7F8FFE3E003E000F9FFF00342
:104D4400F803F001FE001F003FF1FF803FFFFFFF6B
:104D5400FFFFFFFFFFFFFFFFFFFFFFFFFFFFFFFE60
:104D64003F8F8FFF8FC79FF9E7F1F1F1FFF1FE7FCE
:104D74003E3BF8FFF3C7E3F1C7C3C7C387F7FFC7D9
:104D8400F0F1FFFF0FF0F1F1E0FFFE1F0FC78FE717
:104D9400F1FFFFFFFFFFFFFFFFFFFFFFFFFFFFFF2D
:104DA400FFFFFFFFFFFC07FFC7F8FFE3F01FE00072
:104DB400F9FFF003FC0FFC07FFC07FC0FFF1FFE029
:104DC400FFFFFFFFFFFFFFFFFFFFFFFFFFFFFFFFEF
:104DD400FFFFFFFE03C01FFF800F9FF9E7F1F00103
:104DE400FFF81E7F3E3801FFF3C7E3F1C003C003A1
:104DF400E007FFE07801FFFF0FF801F000FFFE1F5E
:104E04008FC780E7F1FFFFFFFFFFFFFFFFFFFFFFFB
:104E1400FFFFFFFFFFFFFFFFFFFFFFFFFFFFFFFF9E
:104E2400FFFFFFFFFFFFFFFFFFFFFFFFFFFFFFFF8E
:104E3400FFFFFFFFFFFFFFFFFFFFFFFFFFFFFFFF7E
:104E4400FFFFFFFFFFFFFFFF83F07FFF803F9FF91E
:104E5400E7F1FC19FFFC1E7F3E3C07FFF3C7E3F1BB
:104E6400F063F067F81FFFF07E07FFFF9FFE07FC6B
:104E740018FFFF3F8FC7E0E7F1FFFFFFFFFFFFFFD2
:104E8400FFFFFFFFFFFFFFFFFFFFFFFFFFFFFFFF2E
:104E9400FFFFFFFFFFFFFFFFFFFFFFFFFFFFFFFF1E
:104EA400FFFFFFFFFFFFFFFFFFFFFFFFFFFFFFFF0E
:104EB400FFFFFFFFFFFFFFFFFFFFFFFFFFFFFFFFFE
:104EC400FFFFFFFFFFFFFFF9FFFFFFFFFFFFFFFFF4
:104ED400FFFFFFFFFFFFFFE7FFFFFFFFFFFFFFFFF6
:104EE4001FFFFFFFFFFFFFFFFFFFFFFFFFFFFFFFAE
:104EF400FFFFFFFFFFFFFFFFFFFFFFFFFFFFFFFFBE
:104F0400FFFFFFFFFFFFFFFFFFFFFFFFFFFFFFFFAD
:104F1400FFFFFFFFFFFFFFFFFFFFFFFFFFFFFFFF9D
:104F2400FFFFFFFFFFFFFFFFFFFFFFFFFFFFFFFF8D
:104F3400FFFFFFFFFFFFFFFFFFFFFFF1FFFFFFFF8B
:104F4400FFFFFFFFFFFFFFFFFFFFFFC7FFFFFFFFA5
:104F5400FFFFFFFF3FFFFFFFFFFFFFFFFFFFFFFF1D
:104F6400FFFFFFFFFFFFFFFFFFFFFFFFFFFFFFFF4D
:104F7400FFFFFFFFFFFFFFFFFFFFFFFFFFFFFFFF3D
:104F8400FFFFFFFFFFFFFFFFFFFFFFFFFFFFFFFF2D
:104F9400FFFFFFFFFFFFFFFFFFFFFFFFFFFFFFFF1D
:104FA400FFFFFFFFFFFFFFFFFFFFFFFFFFFFF00318
:104FB400FFFFFFFFFFFFFFFFFFFFFFFFFFFFC00F2C
:104FC400FFFFFFFFFFFFFFFE3FFFFFFFFFFFFFFFAE
:104FD400FFFFFFFFFFFFFFFFFFFFFFFFFFFFFFFFDD
:104FE400FFFFFFFFFFFFFFFFFFFFFFFFFFFFFFFFCD
:104FF400FFFFFFFFFFFFFFFFFFFFFFFFFFFFFFFFBD
:10500400FFFFFFFFFFFFFFFFFFFFFFFFFFFFFFFFAC
:10501400FFFFFFFFFFFFFFFFFFFFFFFFFFFFFFFF9C
:10502400FFFFF80FFFFFFFFFFFFFFFFFFFFFFFFF83
:10503400FFFFE03FFFFFFFFFFFFFFFFC7FFFFFFFDE
:10504400FFFFFFFFFFFFFFFFFFFFFFFFFFFFFFFF6C
:10505400FFFFFFFFFFFFFFFFFFFFFFFFFFFFFFFF5C
:10506400FFFFFFFFFFFFFFFFFFFFFFFFFFFFFFFF4C
:10507400FFFFFFFFFFFFFFFFFFFFFFFFFFFFFFFF3C
:1052A400FFFFFFFCFFFFFFFFFFFFFFFFFDFFFFFF0F
:1052B400FFFFFFFFFFFFFFFFFFFFFCFFFFFFFFFFFD
:1052C400FFFFFFFFFFFFFFFFFFFFFFFFFFFFFFFFEA
:1052D400FFFFFFFFFFFFFFFFFFFFFFFFFFFFFFFFDA
:1052E400FFFFFFFFFFFFFFFFFFFFFFFFFFFFFFFFCA
:1052F400FFFFFFFFFFFFFFFFFFFFFFFFFFFFFFFFBA
:10530400FFFFFFFFFFFFFFFFFFFFFFFFFFFFFFFFA9
:10531400FFFFFFFFFFFF0FFCFFFFFFFFFFFFFFFF8C
:10532400FDFFE03FFFF001FE07FFFFFFFFFFFCF181
:10533400FFFFFFFFFFFFFFFFFFFFFFFFFFFFFFFF79
:10534400FFFFFFFFFFFFFFFFFFFFFFFFFFFFF9E38B
:10535400FFFFFFFFFFFFFFFFFFFFFFFFFFFFFFFF59
:10536400FFFFFFFFFFFFFFFFFFFFFFFFFFFFFFFF49
:10537400FFFFFFFFFFFFFFFFFFFFFFFFFFFFFFFF39
:10538400FFFFFFFFFFFFFFFFFFFF0FFCFFFFFFFF1C
:10539400FFF8FFFFFDFF800FFFF001F803FFFFFFA1
:1053A400FFFFFCF1FFFFFFFFFFFFFFFFFFFFFFFF1A
:1053B400FFFFFFFFFFFFFFFFFFFFFFFFFFFFFFFEFA
:1053C4003FFFF9E3FFFFFFFC1FFFFF80FC01FCFF31
:1053D4008FFFFFFFFFFFFFFFFFFFFFFE3FFFFFFF0A
:1053E400FFFFFFFFFFFFFFFFFFFFFFFFFFFFFFFFC9
:1053F400FFFFFFFFFFFFFFFFFFFFFFFFFFFE07FCB5
:10540400FFFFFFFFFFF8FFFFF01FDF87FFF3FFF051
:10541400F1FFFFFFFFFFFCFFFFFFFFFFFFFFFFFFA9
:10542400FFFFFFFFFFFFFFFFFFFFFFFFFFFFFFFF88
:10543400FFFFF9FE3FFFF9E3FFFFFFF007FFFE0068
:105444001C007CFF8FFFFFFFFFFFFFFFFFFFFFFE3E
:105454003FFFFFFFFFFFFFFFFFFFFFFFFFFFFFFF18
:10546400FFFFFFFFFFFFFFFFFFFFFFFFFFFFFFFF48
:10547400FFFE67FCFFFFFFFFFFF8FFFFC00FFFC742
:10548400FFF3FFF1F8FFFFFFFFFFFCFFFFFFFFFF4C
:10549400FFFFFFFFFFFFFFFFFFFFFFFFFFFFFFFF18
:1054A400FFFFFFFFFFFFF9FFFFFFF9E3FFFFFFE34C
:1054B400C3FFF87F1C7E3CFF8FFFFFFFFFFFFFFF52
:1054C400FFFFFFFE3FFFFFFFFFFFFFFFFFFFFFFFA9
:1054D400FFFFFFFFFFFFFFFFFFFFFFFFFFFFFFFFD8
:1054E400FFFFFFFFFFFC63FCC1FF07F1FCF00FFFB0
:1054F4008DEFFFC7FFF3FFF3F8FFFF03F8C1FCF1E3
:10550400E60FFE0FFFFFFFFFFFFFFFFFFFFFFFFFA1
:10551400FFFFFFFFFFFFFFFFFFFFF9FFFFFFF9E3BF
:10552400FFFFFFC7E3FFF0FFFC7F1CFF8FFFFFFFC0
:10553400FFFFFFFFFFFFFFFE3FFFFFFFFFFFFFFF38
:10554400FFFFFFFFFFFFFFFFFFFFFFFFFFFFFFFF67
:10555400FFFFFFFFFFFFFFFFFFFCF3FC00FC01F177
:10556400FCF00FFF1DFFFFC7FFF3FFF3FCFFFE007E
:10557400F800FCF1E003F803FFFFFFFFFFFFFFFF6C
:10558400FFFFFFFFFFFFFFFE60FC61807FE0600E16
:105594003C03F9E39FE3FFC7F1FFF1FFFC7F1CFF2E
:1055A4008FFFCFE3F81F00FFC01FC1FE3FFFFFFFC7
:1055B400FFFFFFFFFFFFFFFFFFFFFFFFFFFFFFFFF7
:1055C400FFFFFFFFFFFFFFFFFFFFFFFFFFF8F1FCFF
:1055D4007C78F8F1FCF8FFFF1DFFFF8FFFF00FE36D
:1055E400FCFFFC78787C7CF1E1E3E3F1FFFFFFFF53
:1055F400FFFFFFFFFFFFFFFFFFFFFFFE003C0180F7
:105604001F80000E3C00F9E38FE7FFC7F1FFF3FFB3
:10561400FC7F3CFF8FFFCFE3E00F003F001F007EC5
:105624003FFFFFFFFFFFFFFFFFFFFFFFFFFFFFFF46
:10563400FFFFFFFFFFFFFFFFFFFFFFFFFFFFFFFF76
:10564400FFF9F9FCFE31FC71FCF8FFFF80FFFF1F3E
:10565400FFF003E3FCFFF8FE78FC7CF1E7F1E7F9E7
:10566400FFFFFFFFFFFFFFFFFFFFFFFFFFFFFFFE47
:105674003E1C3FFF1F1FB9FE3FF8F9E3CFC7FFCF22
:10568400F1FFE3FFFC7C3CFF8FFFCFE3C7EFFE1E7F
:105694003F1E3E3F3FFFFFFFFFFFFFFFFFFFFFFFF8
:1056A400FFFFFFFFFFFFFFFFFFFFFFFFFFFFFFFF06
:1056B400FFFFFFFFFFF9F8FCFF31FC71FCF8FFFF6F
:1056C400E01FFE3FFFFFE1E3FCFFF9FE38FC7CF145
:1056D400E7F1E001FFFFFFFFFFFFFFFFFFFFFFFF19
:1056E400FFFFFFFE7F1C7FFF9E3FF9FE3FFC79E337
:1056F400C7CFFFCFF1FFE3FFFC007CFF8FFFCFE3B9
:10570400C7FFFF1E7F1CFF3F3FFFFFFFFFFFFFFFA1
:10571400FFFFFFFFFFFFFFFFFFFFFFFFFFFFFFFF95
:10572400FFFFFFFFFFFFFFFFFFF000FCFF31FC71F5
:10573400FCF8FFFFFC0FFC7FFFFFF1F3FCFFF1FE21
:1057440038FC7CF1E7F1C001FFFFFFFFFFFFFFFF23
:10575400FFFFFFFFFFFFFFFE7F9C7FF01E3FF9FE70
:105764003F8079E3E78FFFCFF1FFE3FFFC01FCFF0C
:105774008FFFCFE3E3FFE01C7F1C001F3FFFFFFF11
:10578400FFFFFFFFFFFFFFFFFFFFFFFFFFFFFFFF25
:10579400FFFFFFFFFFFFFFFFFFFFFFFFFFE0007CB6
:1057A400FE31FC71FCF8FFFFFDC7F1FFFFFFF9F3C9
:1057B400F8FFF9FE38FC7CF1E7F1C7FFFFFFFFFFBC
:1057C400FFFFFFFFFFFFFFFFFFFFFFFE7F9C7F80C8
:1057D4001E3FF9FE3C0079E3E39FFFC7F1FFF3FFAF
:1057E400FC7FFCFF8FFFCFE3F01F001C7F1C001F1A
:1057F4003FFFFFFFFFFFFFFFFFFFFFFFFFFFFFFF75
:10580400FFFFFFFFFFFFFFFFFFFFFFFFFFFFFFFFA4
:10581400FFE3FC7CFE31FC71FCF8FFFFFDE7E3FFD6
:10582400FFFFF1F1F8FFF8FE78FC7CF1E7F1E3FF0C
:10583400FFFFFFFFFFFFFFFFFFFFFFFFFFFFFFFE75
:105844007F9C7F1F9E3FF9FE38FC79E3F33FFFC73F
:10585400F1FFF1FFFC7FFC7F8FFFCFE3FF8E1F1C66
:105864007F1CFFFF3FFFFFFFFFFFFFFFFFFFFFFF67
:10587400FFFFFFFFFFFFFFFFFFFFFFFFFFFFFFFF34
:10588400FFFFFFFFFFE7FE7CFC78F8F8F0F8FFFF6E
:10589400BDC78FFFE3E7E1F0F1FFFC7878FC7CF112
:1058A400E7F1E1FDFFFFFFFFFFFFFFFFFFFFFFFF4A
:1058B400FFFFFFFE7F1C7E3F9E3FF9FE31FC79E334
:1058C400F03FFFC7E3FFF0FFFC7FFC7F8FFFC7E3E0
:1058D400FFC67F1C7F1C7FFFFFFFFFFFFFFFFFFF53
:1058E400FFFFFFFFFFFFFFFFFFFFFFFFFFFFFFFFC4
:1058F400FFFFFFFFFFFFFFFFFFC7FE3C00FC01F8B7
:1059040000FC0FFF000F8003E3E003F803FFFC003B
:10591400F8FC7CF1E7F1F801FFFFFFFFFFFFFFFF59
:10592400FFFFFFFFFFFFFFFE3E3C7F3F1F1FB8FE50
:1059340038F879E3F83FFFE3C3FFF87F1C7FFE3FAD
:105944001FFFC7C3DFC63E1E3E1E3FBFFFFFFFFF54
:10595400FFFFFFFFFFFFFFFFFFFFFFFFFFFFFFFF53
:10596400FFFFFFFFFFFFFFFFFFFFFFFFFFCFFE3C37
:1059740003FF07FE0CFE0FFFC03F8003E3F80FFE9A
:1059840007FFFF03F8FC7CF1E7F1FE07FFFFFFFFD1
:10599400FFFFFFFFFFFFFFFFFFFFFFFE007C7F0015
:1059A4001F80380E380079E3FC7FFFF007FFFE000C
:1059B4001C7FFE003FFFE003C00E001F001F003EDF
:1059C4003FFFFFFFFFFFFFFFFFFFFFFFFFFFFFFFA3
:1059D400FFFFFFFFFFFFFFFFFFFFFFFFFFFFFFFFD3
:1059E400FFFFFFFFFFFFFFFFFFFFFFFFFDFFFFFFC5
:1059F400FFFFFFFFFFFFFFFFFFFFFFFFFFFFFFFFB3
:105A0400FFFFFFFFFFFFFFFFFFFFFFFFFFFFFFFEA3
:105A140001FC7FC19FE07E0E3E0C79E3FCFFFFFC9E
:105A24001FFFFF80FC7FFFC0FFFFF063E03F831F89
:105A3400831FC0FE3FFFFFFFFFFFFFFFFFFFFFFFCE
:105A4400FFFFFFFFFFFFFFFFFFFFFFFFFFFFFFFF62
:105A5400FFFFFFFFFFFFFFFFFFFFFFFFFFFFFFFF52
:105A6400FDFFFFFFFFFFFFFFFFFFFFFFFFFFFFFF44
:105A7400FFFFFFFFFFFFFFFFFFFFFFFFFFFFFFFF32
:105A8400FFFFFFFE7FFFFFFFFFFFFFFFFFFFFFFFA3
:105A9400F8FFFFFFFFFFFFFFFFFFFFFFFFFFFFFF19
:105AA400FFFFFFFFFF3FFFFFFFFFFFFFFFFFFFFFC2
:105AB400FFFFFFFFFFFFFFFFFFFFFFFFFFFFFFFFF2
:105AC400FFFFFFFFFFFFFFFFFFFFFFFFFFFFFFFFE2
:105AD400FFFFFFFFFDFFFFFFFFFFFFFFFFFFFFFFD4
:105AE400FFFFFFFFFFFFFFFFFFFFFFFFFFFFFFFFC2
:105AF400FFFFFFFFFFFFFFFE7FFFFFFFFFFFFFFF33
:105B0400FFFFFFFFF9FFFFFFFFFFFFFFFFFFFFFFA7
:105B1400FFFFFFFFFFFFFFFFFE3FFFFFFFFFFFFF52
:105B2400FFFFFFFFFFFFFFFFFFFFFFFFFFFFFFFF81
:105B3400FFFFFFFFFFFFFFFFFFFFFFFFFFFFFFFF71
:105B4400FFFFFFFFFFFFFFFFFFFFFFFFFFFFFFFF61
:105B5400FFFFFFFFFFFFFFFFFFFFFFFFFFFFFFFF51
:105B6400FFFFFFFFFFFFFFFFFFFFFFFE7FFFFFFFC2
:105B7400FFFFFFFFFFFFFFFFF1FFFFFFFFFFFFFF3F
:105B8400FFFFFFFFFFFFFFFFFFFFFFFF007FFFFFA0
:105B9400FFFFFFFFFFFFFFFFFFFFFFFFFFFFFFFF11
:105BA400FFFFFFFFFFFFFFFFFFFFFFFFFFFFFFFF01
:105BB400FFFFFFFFFFFFFFFFFFFFFFFFFFFFFFFFF1
:105BC400FFFFFFFFFFFFFFFFFFFFFFFFFFFFFFFFE1
:105BD400FFFFFFFFFFFFFFFFFFFFFFFFFFFFFFFED2
:105BE4007FFFFFFFFFFFFFFFFFFFFFFFF3FFFFFF4D
:105BF400FFFFFFFFFFFFFFFFFFFFFFFFFFFFFFFFB1
:105C040001FFFFFFFFFFFFFFFFFFFFFFFFFFFFFF9E
:105C1400FFFFFFFFFFFFFFFFFFFFFFFFFFFFFFFF90
:105C2400FFFFFFFFFFFFFFFFFFFFFFFFFFFFFFFF80
:105C3400FFFFFFFFFFFFFFFFFFFFFFFFFFFFFFFF70
:105C4400FFFFFFFFFFFFFFFFFFFFFFFFFFFFFFFF60
:105F1400FFFFFFFFFFFF0FFFFFFFFFFFFC3FFFFF40
:105F2400FFFFFFFFFFFFFFFFFFFFFFFFFFFFFFFF7D
:105F3400FFFFFF83FFFFFFFFFFFFFFF1FFFFFFFFF7
:105F4400FFFFFFFFFFFFFFFFFFFFFFFFFFFFFFFF5D
:105F5400FFFFFFFFFFFFFFFFFFFFFFFFFFFFFFFF4D
:105F64009C3FFFFFFFFFFFFFFFFFFFFFFFFFFFFF60
:105F7400FFFFFFFFFFFFFFFFFFFFFFFFFFFFFFFF2D
:105F8400F01FFFFFFFFFFFFFFFFF0FFFFFFFFFFFFC
:105F9400FC3FFFFFFF8007FFFFFFFFFFFFFFF03F16
:105FA400C1FFFFFFFFFFFF83FFFFFFE03FFFFFF1A4
:105FB400FFFFFFFFFFFFFFFFFFFFFFFFFFFFFFFFED
:105FC400FFFFFFFFFFFFFFFFFFFFFFFFFFFFFFFFDD
:105FD400FFFFFFFF8C1FFFFFFFFFFFFFFFFFFFFF20
:105FE400FFFFFFFFFFFFFFFFFFFFFFFFFFFFFFFFBD
:105FF400FFFFFFFF8003FFFFFFFFFFFFFFFF0FFF18
:10600400FFC3FFFFFC3FFFFFFF8001FFFFFFFFFF18
:10601400FFFFF03F81FFFFF87FFFFF83FFFFFF805B
:106024000FFFFFF1FFFFFFFFFFFFFFFFFFFFFFFF7A
:10603400FFFFFFFFFFFFFFFFFFFFFFFFFFFFFFFF6C
:10604400FFFFFFFFFFFFFFFF0E0FFFFFFFFFFFFF3D
:10605400FFFFFFFFFFFFFFFFFFFFFFFFFFFFFFFF4C
:10606400FFFFFFFFFFFFFFFF0003FFFFFFFFFFFF37
:10607400FFFF0FFFFFC3FFFFFC3FFFFFFF8000FF99
:10608400FFFFFFFFFFFFF01F01FFFFF87FFFFF830C
:10609400FFFFFF0F83FFFFF1FFFFFFFFFFFFFFFF86
:1060A400FFFFFFFFFFFFFFFFFFFFFFFFFFFFFFFFFC
:1060B400FFFFFFFFFFFFFFFFFFFFFFFF0F0FFFFFCC
:1060C400FFFFFFFFFFFFFFFFFFFFFFFFFFFFFFFFDC
:1060D400FFFFFFFFFFFFFFFFFFFFFFFE07E3FFFFE1
:1060E400FFFFFFFFFFFF0FFFFFC3FFFFFC3FFFFFAB
:1060F400FF83C0FFFFFFFFFFFFFFF01F01FFFFF85B
:106104007FFFFF83FFFFFE3FE3FFFFF1FFFFFFFF82
:10611400FFFFFFFFFFFFFFFFFFFFFFFFFFFFFFFF8B
:10612400FFFFFFFFFFFFFFFFFFFFFFFFFFFFFFFE7C
:106134000F0FFFFFFFFFFFFFFFFFFFFFFFFFFFFF4B
:10614400FFFFFFFFFFFFFFFFFFFFFFFFFFFFFFFC5E
:106154000FFFF01FE183E1FC307F0FF01F001F8071
:10616400FC383F07FF83E0F803F871F80FFFF00EE7
:1061740001FE03E003803F83F1FFFE7FF1E307F1BB
:106184008FF1FFE20F83C7F8FFFE0FC7E7E7183F61
:10619400FFFFFFFFFFFFFFFFFFFFFFFFFFFFFFFF0B
:1061A400FFFFFFFE1F0FFFFFFFFFFFFFFFFFFFFFCC
:1061B400FFFFFFFFFFFFFFFFFFFFFFFFFFFFFFFFEB
:1061C400FFFFFFFC1FFFC007E000007C001F0FC0A3
:1061D40007001C003C3C1F0FFF83C1F000F801E0E6
:1061E40003FFF00401F800E003000F83F1FFFC7FDC
:1061F400F1E003F1C7F3FFE00001E7F9FFF803E77B
:10620400C7C7001FFFFFFFFFFFFFFFFFFFFFFFFFE9
:10621400FFFFFFFFFFFFFFFE1F0FFFFFFFFFFFFF5B
:10622400FFFFFFFFFFFFFFFFFFFFFFFFFFFFFFFF7A
:10623400FFFFFFFFFFFFFFFC1FFF8783E0E0787C89
:106244001E0F0F8783C3F83C1C3C1E0FFF8003F313
:10625400F0783FC3C1FFF08401F078787FBF0783F3
:10626400F1FFFC7FF9E0F1F1C7E3FFE1E0F1E3F1D5
:10627400FFF1F1E3C3C70F8FFFFFFFFFFFFFFFFF36
:10628400FFFFFFFFFFFFFFFFFFFFFFFE1F0FFFFFEB
:10629400DFFFFFFFFF3FFFFFFFFFFFFFFFFFFFFFEA
:1062A400FFFFFFFFFFFFFFFFFFFFFFFC1FFF07C113
:1062B400E1F0F83C3E0F0F0FC1C3F07C1C3E0E1FF3
:1062C400FF8001FFF0787F87E1FFF0C041E0F838FC
:1062D4007FFF8783FFFFFC7FF9E3F9F1E3C7FFE367
:1062E400F1F8F1E3FFE3F8F383CF1F8FFFFFFFFF24
:1062F400FFFFFFFFFFFFFFFFFFFFFFFFFFFFFFFCAD
:106304001A0FFFF803FFFFFFFF1FFFFFFFFFFFFF51
:10631400FFFFFFFFFFFFFFFFFFFFFFFFFFFFFFFC8C
:106324001FFF0FC1E1F0F83C3F070F0001C3F0006D
:106334001C3E0E1FFF8000FE00787F8001FFF0C02E
:1063440041E000387FF00783FFFFFC7FF9E3F9F1B8
:10635400F3CFFFE3F1F8F9E7FFE3F8F399CF1F8FE9
:10636400FFFFFFFFFFFFFFFFFFFFFFFFFFFFFFFF39
:10637400FFFFFFFC000FFFF003FFFFFFFE1FFFFF07
:10638400FFFFFFFFFFFFFFFFFFFFFFFFFFFFFFFF19
:10639400FFFFFFFC1FFE0FC1E1F0F83C3F070F00B9
:1063A40001C3F0001C3F043FFF83E07000787F804E
:1063B40001FFF0E0C1E000387F800783FFFFFC7F2E
:1063C400F9E3F9F1F18FFFE3F1F8F8C7FFE3FCF12A
:1063D400998F1F8FFFFFFFFFFFFFFFFFFFFFFFFFEF
:1063E400FFFFFFFFFFFFFFFC000FFFC003FFFFFFE6
:1063F400FE1FFFFFFFFFFFFFFFFFFFFFFFFFFFFF8A
:10640400FFFFFFFFFFFFFFFC0FFF0FC1E1F0F83CB0
:106414003F070F0FFFC3F07FFC3F003FFF83F06097
:1064240070787F87FFFFF0E1C1E1FFF87E07878383
:10643400FFFFFE7FF1E3F9F1F99FFFE3F1F8FCCFF1
:10644400FFE3F8F93C9F1F8FFFFFFFFFFFFFFFFFF4
:10645400FFFFFFFFFFFFFFFFFFFFFFFC0007FF81C0
:10646400C3F9FFFFFE1FFFFFFFFFFFFFFFFFFFFF5B
:10647400FFFFFFFFFFFFFFFFFFFFFFFE07E307C173
:10648400E1F0F83C3E0F0F07FBC3F07FFC3F807F39
:10649400FF83E060F0787F83FDFFF0FFC1E0FF78C9
:1064A4007E0F8783FFFFFE3FE3E3F9F1F81FFFE36D
:1064B400F1F8FC0FFFE3F8F83C1F1F8FFFFFFFFF0D
:1064C400FFFFFFFFFFFFFFFFFFFFFFFFFFFFFFFCDB
:1064D4000003FF07C3F8FFFFFE1FFF1FFFFFFFFFBF
:1064E400FFFFFFFFFFFFFFFFFFFFFFFFFFFFFFFFB8
:1064F40000038783E1F0F83C3C1F0F83E3C1F81FDE
:106504001C3F807FFF8000E0F0787FC1F1FFF0FF47
:10651400C1F07E383E0F0783F1FFFF0FC3E3F9F1AB
:10652400FC3FFFE3F1F8FE1FFFF1F1F87C3F1F8F02
:10653400FFFFFFFFFFFFFFFFFFFFFFFFFFFFFFFF67
:10654400FFFFFFFC0001FF0FC3F0FFFFFE1FFC0372
:10655400FCFFFFFFFFFFFFFFFFFFFFFFFFFFFFFF4A
:10656400FFFFFFFF8003C007E1F0F83C003F0FC0CE
:1065740003C01C001C3FC0FFFF8001F000787FE0D7
:1065840001FFF0FFC1F8003C03000783F1FFFF8027
:106594000FE3F9F1FC3FFFE3F1F8FE1FFFF803FC02
:1065A4007E3F1F8FFFFFFFFFFFFFFFFFFFFFFFFF88
:1065B400FFFFFFFFFFFFFFF800E0FF0FC3F0FFFF47
:1065C400FE1FF000F87FF01FFFFFFFFFFFFFFFFF3C
:1065D400FFFFFFFFFFFFFFFFF01FF01FE1F0F83C9C
:1065E400007F0FF007F03F807C3FC0FFFF8007F87B
:1065F40010787FF807FFF0FFC1FF00FE07C1078393
:10660400F1FFFFE03FE3F9F1FE7FFFE3F1F8FE3F26
:10661400FFFE0FFCFE3F1F8FFFFFFFFFFFFFFFFF8B
:10662400FFFFFFFFFFFFFFFFFFFFFFF83FF0FF0F3C
:10663400C1F0703FFE1FF000F83F0007FFFFFFFFAF
:10664400FFFFFFFFFFFFFFFFFFFFFFFFFFFFFFFF56
:10665400FFFFFFFC3FFFFFFFFFFFFFFFFFFFC1FF47
:10666400FFFFFFFFFFFFFFFFFFFFFFFFFFFFFFFF36
:10667400FFFFFFFFFFFFFFFFFFFFFFFFFC7FFFFFA9
:10668400FFFFFE3FFFFFFFFFFFFFFFFFFFFFFFFFD7
:10669400FFFFFFFFFFFFFFFFFFFFFFFFFFFFFFF80D
:1066A4007FF0FE0FE1F8401FE007E0F0783C0003C4
:1066B400FFFFFFFFFFFFFFFFFFFFFFFFFFFFFFFFE6
:1066C400FFFFFFFFFFFFFFFC3FFFFFFFFFFFFFFF99
:1066D400FFFFC1FFFFFFFFFFFFFFFFFFFFFFFFFF04
:1066E400FFFFFFFFFFFFFFFFFFFFFFFFFFFFFFFFB6
:1066F400F8FFFFFFFFFFFC7FFFFFFFFFFFFFFFFF30
:10670400FFFFFFFFFFFFFFFFFFFFFFFFFFFFFFFF95
:10671400FFFFFFF8FFF0FE1FE1F8000E0001E1F8B3
:106724007C000003FFFFFFFFFFFFFFFFFFFFFFFFF2
:10673400FFFFFFFFFFFFFFFFFFFFFFFC3FFFFFFF28
:10674400FFFFFFFFFFFF83FFFFFFFFFFFFFFFFFFD1
:10675400FFFFFFFFFFFFFFFFFFFFFFFFFFFFFFFF45
:10676400FFFFFFFFF9FFFFFFFFFFFCFFFFFFFFFF3E
:10677400FFFFFFFFFFFFFFFFFFFFFFFFFFFFFFFF25
:10678400FFFFFFFFFFFFFFF8FFF0FC1FE1FC00002D
:106794000001E1F87C003FE1FFFFFFFFFFFFFFFF87
:1067A400FFFFFFFFFFFFFFFFFFFFFFFFFFFFFFFCF8
:1067B4003FFFFFFFFFFFFFFFFFFF83FFFFFFFFFF21
:1067C400FFFFFFFFFFFFFFFFFFFFFFFFFFFFFFFFD5
:1067D400FFFFFFFFFFFFFFFFF1FFFFFFFFFFF8FFDA
:1067E400FFFFFFFFFFFFFFFFFFFFFFFFFFFFFFFFB5
:1067F400FFFFFFFFFFFFFFFFFFFFFFF8FFF0F83F82
:10680400E1FC03000007C0007C01FFE0FFFFFFFF85
:10681400FFFFFFFFFFFFFFFFFFFFFFFFFFFFFFFF84
:10682400FFFFFFFFFFFFFFFFFFFFFFFFFFFFFFFF74
:10683400FFFFFFFFFFFFFFFFFFFFFFFFFFFFFFFF64
:10684400FFFFFFFFFFFFFFFFFFFFFFFFFFFFFFFF54
:10685400FFFFFFFFFFFFFFFFFFFFFFFFFFFFFFFF44
:10686400FFFFFFFFFFFFFFFFFFFFFFFFFFFFFFF83B
:10687400FFF0F00FE1FE07C07F8700007E0FFFF0FE
:10688400FFFFFFFFFFFFFFFFFFFFFFFFFFFFFFFF14
:10689400FFFFFFFFFFFFFFFFFFFFFFFFFFFFFFFF04
:1068A400FFFFFFFFFFFFFFFFFFFFFFFFFFFFFFFFF4
:1068B400FFFFFFFFFFFFFFFFFFFFFFFFFFFFFFFFE4
:1068C400FFFFFFFFFFFFFFFFFFFFFFFFFFFFFFFFD4
:1068D400FFFFFFFFFFFFFFFFFFFFFFFFFFFFFFFFC4
:1068E400FFFFFFF8FFE0F003E1FE0FF0FF87000079
:1068F4007E0FFFFFFFFFFFFFFFFFFFFFFFFFFFFF15
:10690400FFFFFFFFFFFFFFFFFFFFFFFFFFFFFFFF93
:10691400FFFFFFFFFFFFFFFFFFFFFFFFFFFFFFFF83
:10692400FFFFFFFFFFFFFFFFFFFFFFFFFFFFFFFF73
:10693400FFFFFFFFFFFFFFFFFFFFFFFFFFFFFFFF63
:10694400FFFFFFFFFFFFFFFFFFFFFFFFFFFFFFFF53
:10695400FFFFFFFFFFFFFFF8FFE0FC0001FE0FF069
:10696400FF87C007FF0FFFFFFFFFFFFFFFFFFFFFD2
:10697400FFFFFFFFFFFFFFFFFFFFFFFFFFFFFFFF23
:10698400FFFFFFFFFFFFFFFFFFFFFFFFFFFFFFFF13
:10699400FFFFFFFFFFFFFFFFFFFFFFFFFFFFFFFF03
:1069A400FFFFFFFFFFFFFFFFFFFFFFFFFFFFFFFFF3
:1069B400FFFFFFFFFFFFFFFFFFFFFFFFFFFFFFFFE3
:1069C400FFFFFFFFFFFFFFFFFFFFFFF87FC1FC009A
:1069D40001FE0FF07F87E1FFFE0FFFFFFFFFFFFFC8
:1069E400FFFFFFFFFFFFFFFFFFFFFFFFFFFFFFFFB3
:1069F400FFFFFFFFFFFFFFFFFFFFFFFFFFFFFFFFA3
:106A0400FFFFFFFFFFFFFFFFFFFFFFFFFFFFFFFF92
:106A1400FFFFFFFFFFFFFFFFFFFFFFFFFFFFFFFF82
:106A2400FFFFFFFFFFFFFFFFFFFFFFFFFFFFFFFF72
:106A3400FFFFFFFFFFFFFFFFFFFFFFFFFFFFFFF869
:106A44003FC3F83003FE0FF81F87E007FF07FFFF7F
:106A5400FFFFFFFFFFFFFFFFFFFFFFFFFFFFFFFF42
:106A6400FFFFFFFFFFFFFFFFFFFFFFFFFFFFFFFF32
:106A7400FFFFFFFFFFFFFFFFFFFFFFFFFFFFFFFF22
:106A8400FFFFFFFFFFFFFFFFFFFFFFFFFFFFFFFF12
:106A9400FFFFFFFFFFFFFFFFFFFFFFFFFFFFFFFF02
:106AA400FFFFFFFFFFFFFFFFFFFFFFFFFFFFFFFFF2
:106AB400FFFFFFF83F83FC3E07FE07FE0F87E0075A
:106AC400FF07FFFFFFFFFFFFFFFFFFFFFFFFFFFFCA
:106AD400FFFFFFFFFFFFFFFFF1FFFFFFFE3FFFFF91
:106AE400FFFFFFFFFFFFE7FFFFFFFFFFFFFFFFFFCA
:106AF400FFFFF3FFE7FFFFFFFFFFFFFFFFFFFFFFC6
:106B0400FFFFFFFFFFFFFFFCFFFFFC1FFFFFFFFF77
:106B1400FFFFFFFFFFFFFFFFFFFFFFFFFFFFFFFF81
:106B2400FFFFFFFFFFFFFFF80003FFFFFFFF07FF6B
:106B3400838FF00FFF07FFFFFFFFFFFFFFFFFFFF44
:106B4400FFFFFFFFFFFFFFFFFFFFFFFFF3FFFFFF5D
:106B5400FC7FF03FFFFFFFFFFFFFE7FFFFFFFFFFAB
:106B6400FFFFFFFFFFFFF3FFE7FFFFFFFFFFFFFF55
:106B7400FFFFE3FFFFFFFFFFFFFFFFFCFFFFF8192D
:106B8400FFFFF1FFF9FFFFFFFFFFFFFFFFFFFFFF25
:106B9400FFFFFFFFFFFFFFFFFFFFFFFC0007FFFFFB
:106BA400FFFF0FFFC00FFFFFFF87FFFFFFFFFFFF88
:106BB400FFFFFFFFFFFFFFFFFFFFFFFFFFFFFFFFE1
:106BC400F3FFFFFFFCFF8007FFFFFFFFFFFFE7FF6F
:106BD400FFFFFFFFFFFFFFFFFFFFF3FFE7FFFFFFE5
:106BE400FFFFFFFFFFFFE3FFFC7FFFFFFFFFFFFC53
:106BF400FFFFF1F9FFFFF1C7F9FFFFFFFFFFFFFF01
:106C0400FFFFFFFFFFFFFFFFFFFFFFFFFFFFFFFE91
:106C1400001FFFFFFFFFFFFFF00FFFFFFF8FFFFFCE
:106C2400FFFFFFFFFFFFFFFFFFFFFFFFFFFFFFFF70
:106C3400FFFFFFFFF3FFFFFFF9FF0FC7FFFFFFFF9A
:106C4400FFFFE7FFFFFFFFFFFFFFFFFFFFFFF3FF74
:106C5400E7FFFFFFFFFFFFFFFFFFFFFFFC7FFFFFDB
:106C6400FFFFFFFCFFFFF3FFFFFFFFC7FFFFFFFF77
:106C7400FFFFFFFFFFFFFFFFFFFFFFFFFFFFFFFF20
:106C8400FFFFFFFF80FFFFFFFFFFFFFFFC0FFFFF82
:106C9400FFFFFFFFFFFFFFFFFFFFFFFFFFFFFFFF00
:106CA400FFFFFFFFFFFFFFFFF3FFFFFFF1FE3FFFCB
:106CB400FFFFFFFFFFFFE7FFFFFFFFFFFFFFFFFFF8
:106CC400FFFFF3FFE7FFFFFFFFFFFFFFFFFFFFFFF4
:106CD400FC7FFFFFFFFFFFFCFFFFF3FFFFFFFFC78A
:106CE400FFFFFFFFFFFFFFFFFFFFFFFFFFFFFFFFB0
:106CF400FFFFFFFFFFFFFFFFFFFFFFFFFFFFFFFFA0
:106D0400FF9FFFFFFFFFFFFFFFFFFFFFFFFFFFFFEF
:106D1400FFFFFFFFFFFFFFFFC0FC0FFC03FC1FFF93
:106D2400F3FC7FFFFFC03F8C1FF807FFE01FF03F1D
:106D340081FE0FE20F87F307E71FE7FFFF187E07C7
:106D4400FC01E7E03803F07F387FFF00FE07C0193D
:106D5400E307F38039FC1FE60FF81FFFFFFFFFFF77
:106D6400FFFFFFFFFFFFFFFFFFFFFFFFFFFFFFFF2F
:106D7400FFFFFFFFFFFFFFFFFFFFFFFFFFFFFFFF1F
:106D8400FFFFFFFFFFFFFFFFFFFFFFFF007003F0A8
:106D940003F007FFE3FC7FFFFFC00F800FE007FF56
:106DA400C007C01E00F803E00001F001E79FC7FF21
:106DB400FF007803F801E7801803C01F007FFC0080
:106DC400F801C019E003F38039F007E007E007FF9A
:106DD400FFFFFFFFFFFFFFFFFFFFFFFFFFFFFFFFBF
:106DE400FFFFFFF8FFFEFFFFFFFFFFFFFFFFFFFFB7
:106DF400FFFFFFFFFFFFFFFFFFFFFFFFFFFFFFFEA0
:106E04003F71E1E3F3E7E3FFE3FCFFFFFFFF8F875D
:106E1400C7C7E7FFFFC78FDC7EF1F1E1E0F1F1F1D5
:106E2400E78FCFFFFF07F1F1E1F1E79F9C7F8F8FA1
:106E34000FFFF8F8F1F9F3F9E1F1F3C7F9E3E3E14E
:106E4400E3C7EFFFFFFFFFFFFFFFFFFFFFFFFFFFB2
:106E5400FFFFFFFFFFFFFF003FFC7FFFFFFFFFFF80
:106E6400FFFFFFFFFFFFFFFFFFFFFFFFFFFFFFFF2E
:106E7400FFFFFFFC7FE3F9E7F3CFF3FFE7FCFFFF3E
:106E8400FFFFC78FC78FE7FFFFE78FFC7FE7F9E3BB
:106E9400F1F8F3F8E7CF8FFFFF1FE3F8E3F9E71FFB
:106EA400FC7F3FCF1FFFF1FCF3F8F3F9E3F1F3C7E5
:106EB400F9C7F1E7F3C7FFFFFFFFFFFFFFFFFFFF86
:106EC400FFFFFFFFFFFFFFFFFFFFF8001FFC7FFF37
:106ED400FFFFFF9FFFFFFFFFFFFFFFFFFFFFFFFF1E
:106EE400FFFFFFFFFFFFFFFCFFE7F8C7F3C003FF4F
:106EF400E7FCFFFFFFF8078FC78FE7FFFC07C7FC1E
:106F04003FE000E3F1F8F3FCE7C79FFFFF1FE00059
:106F1400E7F9E787FC7F00073FFFF3FCE000F3F9A4
:106F2400E3F1F3C7F9C7F1E7F3E1FFFFFFFFFFFF69
:106F3400FFFFFFFFFFFFFFFFFFFFFFFFFFFFE0007B
:106F44001FF87FFEFFFFFF0FFFFFFFFFFFFFFFFFA5
:106F5400FFFFFFFFFFFFFFFFFFFFFFFCFFC7F8C7B7
:106F6400F38003FFE7FC7FFFFFC0078FC78FE7FFB6
:106F7400E007E03F01C000E3F1F8F3FCE7E31FFFA3
:106F8400FF1FE000C7F9E7C03C7E00073FFFF3FCAA
:106F9400E000F3F9E3F1F3C7F9C7F1E7F3F00FFF0A
